{
	"contracts/estudiantes.sol": {
		"estudiante": {
			"abi": [
				{
					"inputs": [
						{
							"internalType": "string",
							"name": "nombre",
							"type": "string"
						},
						{
							"internalType": "string",
							"name": "apellido",
							"type": "string"
						},
						{
							"internalType": "string",
							"name": "curso",
							"type": "string"
						}
					],
					"stateMutability": "nonpayable",
					"type": "constructor"
				},
				{
					"inputs": [],
					"name": "apellido",
					"outputs": [
						{
							"internalType": "string",
							"name": "",
							"type": "string"
						}
					],
					"stateMutability": "view",
					"type": "function"
				},
				{
					"inputs": [
						{
							"internalType": "string",
							"name": "materia",
							"type": "string"
						}
					],
					"name": "aprobo",
					"outputs": [
						{
							"internalType": "bool",
							"name": "",
							"type": "bool"
						}
					],
					"stateMutability": "view",
					"type": "function"
				},
				{
					"inputs": [],
					"name": "curso",
					"outputs": [
						{
							"internalType": "string",
							"name": "",
							"type": "string"
						}
					],
					"stateMutability": "view",
					"type": "function"
				},
				{
					"inputs": [],
					"name": "nombre_completo",
					"outputs": [
						{
							"internalType": "string",
							"name": "",
							"type": "string"
						}
					],
					"stateMutability": "view",
					"type": "function"
				},
				{
					"inputs": [
						{
							"internalType": "string",
							"name": "materia",
							"type": "string"
						}
					],
					"name": "nota_materia",
					"outputs": [
						{
							"internalType": "uint8",
							"name": "",
							"type": "uint8"
						}
					],
					"stateMutability": "view",
					"type": "function"
				},
				{
					"inputs": [],
					"name": "promedio",
					"outputs": [
						{
							"internalType": "uint256",
							"name": "",
							"type": "uint256"
						}
					],
					"stateMutability": "view",
					"type": "function"
				},
				{
					"inputs": [
						{
							"internalType": "uint8",
							"name": "nota",
							"type": "uint8"
						},
						{
							"internalType": "string",
							"name": "materia",
							"type": "string"
						}
					],
					"name": "set_nota_materia",
					"outputs": [],
					"stateMutability": "nonpayable",
					"type": "function"
				}
			],
			"devdoc": {
				"kind": "dev",
				"methods": {},
				"version": 1
			},
			"evm": {
				"assembly": "    /* \"contracts/estudiantes.sol\":61:4478  contract estudiante ... */\n  mstore(0x40, 0x80)\n    /* \"contracts/estudiantes.sol\":407:856  constructor (string memory nombre, string memory apellido, string memory curso) ... */\n  callvalue\n  dup1\n  iszero\n  tag_1\n  jumpi\n  0x00\n  dup1\n  revert\ntag_1:\n  pop\n  mload(0x40)\n  sub(codesize, bytecodeSize)\n  dup1\n  bytecodeSize\n  dup4\n  codecopy\n  dup2\n  dup2\n  add\n  0x40\n  mstore\n  dup2\n  add\n  swap1\n  tag_2\n  swap2\n  swap1\n  tag_3\n  jump\t// in\ntag_2:\n    /* \"contracts/estudiantes.sol\":513:520  _nombre */\n  0x00\n    /* \"contracts/estudiantes.sol\":504:520  nombre = _nombre */\n  dup1\n  sload\n  tag_6\n  swap1\n  tag_7\n  jump\t// in\ntag_6:\n  dup1\n  0x1f\n  add\n  0x20\n  dup1\n  swap2\n  div\n  mul\n  0x20\n  add\n  mload(0x40)\n  swap1\n  dup2\n  add\n  0x40\n  mstore\n  dup1\n  swap3\n  swap2\n  swap1\n  dup2\n  dup2\n  mstore\n  0x20\n  add\n  dup3\n  dup1\n  sload\n  tag_8\n  swap1\n  tag_7\n  jump\t// in\ntag_8:\n  dup1\n  iszero\n  tag_9\n  jumpi\n  dup1\n  0x1f\n  lt\n  tag_10\n  jumpi\n  0x0100\n  dup1\n  dup4\n  sload\n  div\n  mul\n  dup4\n  mstore\n  swap2\n  0x20\n  add\n  swap2\n  jump(tag_9)\ntag_10:\n  dup3\n  add\n  swap2\n  swap1\n  0x00\n  mstore\n  keccak256(0x00, 0x20)\n  swap1\ntag_11:\n  dup2\n  sload\n  dup2\n  mstore\n  swap1\n  0x01\n  add\n  swap1\n  0x20\n  add\n  dup1\n  dup4\n  gt\n  tag_11\n  jumpi\n  dup3\n  swap1\n  sub\n  0x1f\n  and\n  dup3\n  add\n  swap2\ntag_9:\n  pop\n  pop\n  pop\n  pop\n  pop\n  swap3\n  pop\n    /* \"contracts/estudiantes.sol\":542:551  _apellido */\n  0x01\n    /* \"contracts/estudiantes.sol\":531:551  apellido = _apellido */\n  dup1\n  sload\n  tag_12\n  swap1\n  tag_7\n  jump\t// in\ntag_12:\n  dup1\n  0x1f\n  add\n  0x20\n  dup1\n  swap2\n  div\n  mul\n  0x20\n  add\n  mload(0x40)\n  swap1\n  dup2\n  add\n  0x40\n  mstore\n  dup1\n  swap3\n  swap2\n  swap1\n  dup2\n  dup2\n  mstore\n  0x20\n  add\n  dup3\n  dup1\n  sload\n  tag_13\n  swap1\n  tag_7\n  jump\t// in\ntag_13:\n  dup1\n  iszero\n  tag_14\n  jumpi\n  dup1\n  0x1f\n  lt\n  tag_15\n  jumpi\n  0x0100\n  dup1\n  dup4\n  sload\n  div\n  mul\n  dup4\n  mstore\n  swap2\n  0x20\n  add\n  swap2\n  jump(tag_14)\ntag_15:\n  dup3\n  add\n  swap2\n  swap1\n  0x00\n  mstore\n  keccak256(0x00, 0x20)\n  swap1\ntag_16:\n  dup2\n  sload\n  dup2\n  mstore\n  swap1\n  0x01\n  add\n  swap1\n  0x20\n  add\n  dup1\n  dup4\n  gt\n  tag_16\n  jumpi\n  dup3\n  swap1\n  sub\n  0x1f\n  and\n  dup3\n  add\n  swap2\ntag_14:\n  pop\n  pop\n  pop\n  pop\n  pop\n  swap2\n  pop\n    /* \"contracts/estudiantes.sol\":570:576  _curso */\n  0x03\n    /* \"contracts/estudiantes.sol\":562:576  curso = _curso */\n  dup1\n  sload\n  tag_17\n  swap1\n  tag_7\n  jump\t// in\ntag_17:\n  dup1\n  0x1f\n  add\n  0x20\n  dup1\n  swap2\n  div\n  mul\n  0x20\n  add\n  mload(0x40)\n  swap1\n  dup2\n  add\n  0x40\n  mstore\n  dup1\n  swap3\n  swap2\n  swap1\n  dup2\n  dup2\n  mstore\n  0x20\n  add\n  dup3\n  dup1\n  sload\n  tag_18\n  swap1\n  tag_7\n  jump\t// in\ntag_18:\n  dup1\n  iszero\n  tag_19\n  jumpi\n  dup1\n  0x1f\n  lt\n  tag_20\n  jumpi\n  0x0100\n  dup1\n  dup4\n  sload\n  div\n  mul\n  dup4\n  mstore\n  swap2\n  0x20\n  add\n  swap2\n  jump(tag_19)\ntag_20:\n  dup3\n  add\n  swap2\n  swap1\n  0x00\n  mstore\n  keccak256(0x00, 0x20)\n  swap1\ntag_21:\n  dup2\n  sload\n  dup2\n  mstore\n  swap1\n  0x01\n  add\n  swap1\n  0x20\n  add\n  dup1\n  dup4\n  gt\n  tag_21\n  jumpi\n  dup3\n  swap1\n  sub\n  0x1f\n  and\n  dup3\n  add\n  swap2\ntag_19:\n  pop\n  pop\n  pop\n  pop\n  pop\n  swap1\n  pop\n    /* \"contracts/estudiantes.sol\":598:608  msg.sender */\n  caller\n    /* \"contracts/estudiantes.sol\":587:595  _docente */\n  0x04\n  0x00\n    /* \"contracts/estudiantes.sol\":587:608  _docente = msg.sender */\n  0x0100\n  exp\n  dup2\n  sload\n  dup2\n  0xffffffffffffffffffffffffffffffffffffffff\n  mul\n  not\n  and\n  swap1\n  dup4\n  0xffffffffffffffffffffffffffffffffffffffff\n  and\n  mul\n  or\n  swap1\n  sstore\n  pop\n    /* \"contracts/estudiantes.sol\":407:856  constructor (string memory nombre, string memory apellido, string memory curso) ... */\n  pop\n  pop\n  pop\n    /* \"contracts/estudiantes.sol\":61:4478  contract estudiante ... */\n  jump(tag_22)\n    /* \"#utility.yul\":7:82   */\ntag_23:\n    /* \"#utility.yul\":40:46   */\n  0x00\n    /* \"#utility.yul\":73:75   */\n  0x40\n    /* \"#utility.yul\":67:76   */\n  mload\n    /* \"#utility.yul\":57:76   */\n  swap1\n  pop\n    /* \"#utility.yul\":7:82   */\n  swap1\n  jump\t// out\n    /* \"#utility.yul\":88:205   */\ntag_24:\n    /* \"#utility.yul\":197:198   */\n  0x00\n    /* \"#utility.yul\":194:195   */\n  dup1\n    /* \"#utility.yul\":187:199   */\n  revert\n    /* \"#utility.yul\":211:328   */\ntag_25:\n    /* \"#utility.yul\":320:321   */\n  0x00\n    /* \"#utility.yul\":317:318   */\n  dup1\n    /* \"#utility.yul\":310:322   */\n  revert\n    /* \"#utility.yul\":334:451   */\ntag_26:\n    /* \"#utility.yul\":443:444   */\n  0x00\n    /* \"#utility.yul\":440:441   */\n  dup1\n    /* \"#utility.yul\":433:445   */\n  revert\n    /* \"#utility.yul\":457:574   */\ntag_27:\n    /* \"#utility.yul\":566:567   */\n  0x00\n    /* \"#utility.yul\":563:564   */\n  dup1\n    /* \"#utility.yul\":556:568   */\n  revert\n    /* \"#utility.yul\":580:682   */\ntag_28:\n    /* \"#utility.yul\":621:627   */\n  0x00\n    /* \"#utility.yul\":672:674   */\n  0x1f\n    /* \"#utility.yul\":668:675   */\n  not\n    /* \"#utility.yul\":663:665   */\n  0x1f\n    /* \"#utility.yul\":656:661   */\n  dup4\n    /* \"#utility.yul\":652:666   */\n  add\n    /* \"#utility.yul\":648:676   */\n  and\n    /* \"#utility.yul\":638:676   */\n  swap1\n  pop\n    /* \"#utility.yul\":580:682   */\n  swap2\n  swap1\n  pop\n  jump\t// out\n    /* \"#utility.yul\":688:868   */\ntag_29:\n    /* \"#utility.yul\":736:813   */\n  0x4e487b7100000000000000000000000000000000000000000000000000000000\n    /* \"#utility.yul\":733:734   */\n  0x00\n    /* \"#utility.yul\":726:814   */\n  mstore\n    /* \"#utility.yul\":833:837   */\n  0x41\n    /* \"#utility.yul\":830:831   */\n  0x04\n    /* \"#utility.yul\":823:838   */\n  mstore\n    /* \"#utility.yul\":857:861   */\n  0x24\n    /* \"#utility.yul\":854:855   */\n  0x00\n    /* \"#utility.yul\":847:862   */\n  revert\n    /* \"#utility.yul\":874:1155   */\ntag_30:\n    /* \"#utility.yul\":957:984   */\n  tag_46\n    /* \"#utility.yul\":979:983   */\n  dup3\n    /* \"#utility.yul\":957:984   */\n  tag_28\n  jump\t// in\ntag_46:\n    /* \"#utility.yul\":949:955   */\n  dup2\n    /* \"#utility.yul\":945:985   */\n  add\n    /* \"#utility.yul\":1087:1093   */\n  dup2\n    /* \"#utility.yul\":1075:1085   */\n  dup2\n    /* \"#utility.yul\":1072:1094   */\n  lt\n    /* \"#utility.yul\":1051:1069   */\n  0xffffffffffffffff\n    /* \"#utility.yul\":1039:1049   */\n  dup3\n    /* \"#utility.yul\":1036:1070   */\n  gt\n    /* \"#utility.yul\":1033:1095   */\n  or\n    /* \"#utility.yul\":1030:1118   */\n  iszero\n  tag_47\n  jumpi\n    /* \"#utility.yul\":1098:1116   */\n  tag_48\n  tag_29\n  jump\t// in\ntag_48:\n    /* \"#utility.yul\":1030:1118   */\ntag_47:\n    /* \"#utility.yul\":1138:1148   */\n  dup1\n    /* \"#utility.yul\":1134:1136   */\n  0x40\n    /* \"#utility.yul\":1127:1149   */\n  mstore\n    /* \"#utility.yul\":917:1155   */\n  pop\n    /* \"#utility.yul\":874:1155   */\n  pop\n  pop\n  jump\t// out\n    /* \"#utility.yul\":1161:1290   */\ntag_31:\n    /* \"#utility.yul\":1195:1201   */\n  0x00\n    /* \"#utility.yul\":1222:1242   */\n  tag_50\n  tag_23\n  jump\t// in\ntag_50:\n    /* \"#utility.yul\":1212:1242   */\n  swap1\n  pop\n    /* \"#utility.yul\":1251:1284   */\n  tag_51\n    /* \"#utility.yul\":1279:1283   */\n  dup3\n    /* \"#utility.yul\":1271:1277   */\n  dup3\n    /* \"#utility.yul\":1251:1284   */\n  tag_30\n  jump\t// in\ntag_51:\n    /* \"#utility.yul\":1161:1290   */\n  swap2\n  swap1\n  pop\n  jump\t// out\n    /* \"#utility.yul\":1296:1604   */\ntag_32:\n    /* \"#utility.yul\":1358:1362   */\n  0x00\n    /* \"#utility.yul\":1448:1466   */\n  0xffffffffffffffff\n    /* \"#utility.yul\":1440:1446   */\n  dup3\n    /* \"#utility.yul\":1437:1467   */\n  gt\n    /* \"#utility.yul\":1434:1490   */\n  iszero\n  tag_53\n  jumpi\n    /* \"#utility.yul\":1470:1488   */\n  tag_54\n  tag_29\n  jump\t// in\ntag_54:\n    /* \"#utility.yul\":1434:1490   */\ntag_53:\n    /* \"#utility.yul\":1508:1537   */\n  tag_55\n    /* \"#utility.yul\":1530:1536   */\n  dup3\n    /* \"#utility.yul\":1508:1537   */\n  tag_28\n  jump\t// in\ntag_55:\n    /* \"#utility.yul\":1500:1537   */\n  swap1\n  pop\n    /* \"#utility.yul\":1592:1596   */\n  0x20\n    /* \"#utility.yul\":1586:1590   */\n  dup2\n    /* \"#utility.yul\":1582:1597   */\n  add\n    /* \"#utility.yul\":1574:1597   */\n  swap1\n  pop\n    /* \"#utility.yul\":1296:1604   */\n  swap2\n  swap1\n  pop\n  jump\t// out\n    /* \"#utility.yul\":1610:1917   */\ntag_33:\n    /* \"#utility.yul\":1678:1679   */\n  0x00\n    /* \"#utility.yul\":1688:1801   */\ntag_57:\n    /* \"#utility.yul\":1702:1708   */\n  dup4\n    /* \"#utility.yul\":1699:1700   */\n  dup2\n    /* \"#utility.yul\":1696:1709   */\n  lt\n    /* \"#utility.yul\":1688:1801   */\n  iszero\n  tag_59\n  jumpi\n    /* \"#utility.yul\":1787:1788   */\n  dup1\n    /* \"#utility.yul\":1782:1785   */\n  dup3\n    /* \"#utility.yul\":1778:1789   */\n  add\n    /* \"#utility.yul\":1772:1790   */\n  mload\n    /* \"#utility.yul\":1768:1769   */\n  dup2\n    /* \"#utility.yul\":1763:1766   */\n  dup5\n    /* \"#utility.yul\":1759:1770   */\n  add\n    /* \"#utility.yul\":1752:1791   */\n  mstore\n    /* \"#utility.yul\":1724:1726   */\n  0x20\n    /* \"#utility.yul\":1721:1722   */\n  dup2\n    /* \"#utility.yul\":1717:1727   */\n  add\n    /* \"#utility.yul\":1712:1727   */\n  swap1\n  pop\n    /* \"#utility.yul\":1688:1801   */\n  jump(tag_57)\ntag_59:\n    /* \"#utility.yul\":1819:1825   */\n  dup4\n    /* \"#utility.yul\":1816:1817   */\n  dup2\n    /* \"#utility.yul\":1813:1826   */\n  gt\n    /* \"#utility.yul\":1810:1911   */\n  iszero\n  tag_60\n  jumpi\n    /* \"#utility.yul\":1899:1900   */\n  0x00\n    /* \"#utility.yul\":1890:1896   */\n  dup5\n    /* \"#utility.yul\":1885:1888   */\n  dup5\n    /* \"#utility.yul\":1881:1897   */\n  add\n    /* \"#utility.yul\":1874:1901   */\n  mstore\n    /* \"#utility.yul\":1810:1911   */\ntag_60:\n    /* \"#utility.yul\":1659:1917   */\n  pop\n    /* \"#utility.yul\":1610:1917   */\n  pop\n  pop\n  pop\n  jump\t// out\n    /* \"#utility.yul\":1923:2344   */\ntag_34:\n    /* \"#utility.yul\":2012:2017   */\n  0x00\n    /* \"#utility.yul\":2037:2103   */\n  tag_62\n    /* \"#utility.yul\":2053:2102   */\n  tag_63\n    /* \"#utility.yul\":2095:2101   */\n  dup5\n    /* \"#utility.yul\":2053:2102   */\n  tag_32\n  jump\t// in\ntag_63:\n    /* \"#utility.yul\":2037:2103   */\n  tag_31\n  jump\t// in\ntag_62:\n    /* \"#utility.yul\":2028:2103   */\n  swap1\n  pop\n    /* \"#utility.yul\":2126:2132   */\n  dup3\n    /* \"#utility.yul\":2119:2124   */\n  dup2\n    /* \"#utility.yul\":2112:2133   */\n  mstore\n    /* \"#utility.yul\":2164:2168   */\n  0x20\n    /* \"#utility.yul\":2157:2162   */\n  dup2\n    /* \"#utility.yul\":2153:2169   */\n  add\n    /* \"#utility.yul\":2202:2205   */\n  dup5\n    /* \"#utility.yul\":2193:2199   */\n  dup5\n    /* \"#utility.yul\":2188:2191   */\n  dup5\n    /* \"#utility.yul\":2184:2200   */\n  add\n    /* \"#utility.yul\":2181:2206   */\n  gt\n    /* \"#utility.yul\":2178:2290   */\n  iszero\n  tag_64\n  jumpi\n    /* \"#utility.yul\":2209:2288   */\n  tag_65\n  tag_27\n  jump\t// in\ntag_65:\n    /* \"#utility.yul\":2178:2290   */\ntag_64:\n    /* \"#utility.yul\":2299:2338   */\n  tag_66\n    /* \"#utility.yul\":2331:2337   */\n  dup5\n    /* \"#utility.yul\":2326:2329   */\n  dup3\n    /* \"#utility.yul\":2321:2324   */\n  dup6\n    /* \"#utility.yul\":2299:2338   */\n  tag_33\n  jump\t// in\ntag_66:\n    /* \"#utility.yul\":2018:2344   */\n  pop\n    /* \"#utility.yul\":1923:2344   */\n  swap4\n  swap3\n  pop\n  pop\n  pop\n  jump\t// out\n    /* \"#utility.yul\":2364:2719   */\ntag_35:\n    /* \"#utility.yul\":2431:2436   */\n  0x00\n    /* \"#utility.yul\":2480:2483   */\n  dup3\n    /* \"#utility.yul\":2473:2477   */\n  0x1f\n    /* \"#utility.yul\":2465:2471   */\n  dup4\n    /* \"#utility.yul\":2461:2478   */\n  add\n    /* \"#utility.yul\":2457:2484   */\n  slt\n    /* \"#utility.yul\":2447:2569   */\n  tag_68\n  jumpi\n    /* \"#utility.yul\":2488:2567   */\n  tag_69\n  tag_26\n  jump\t// in\ntag_69:\n    /* \"#utility.yul\":2447:2569   */\ntag_68:\n    /* \"#utility.yul\":2598:2604   */\n  dup2\n    /* \"#utility.yul\":2592:2605   */\n  mload\n    /* \"#utility.yul\":2623:2713   */\n  tag_70\n    /* \"#utility.yul\":2709:2712   */\n  dup5\n    /* \"#utility.yul\":2701:2707   */\n  dup3\n    /* \"#utility.yul\":2694:2698   */\n  0x20\n    /* \"#utility.yul\":2686:2692   */\n  dup7\n    /* \"#utility.yul\":2682:2699   */\n  add\n    /* \"#utility.yul\":2623:2713   */\n  tag_34\n  jump\t// in\ntag_70:\n    /* \"#utility.yul\":2614:2713   */\n  swap2\n  pop\n    /* \"#utility.yul\":2437:2719   */\n  pop\n    /* \"#utility.yul\":2364:2719   */\n  swap3\n  swap2\n  pop\n  pop\n  jump\t// out\n    /* \"#utility.yul\":2725:3907   */\ntag_3:\n    /* \"#utility.yul\":2843:2849   */\n  0x00\n    /* \"#utility.yul\":2851:2857   */\n  dup1\n    /* \"#utility.yul\":2859:2865   */\n  0x00\n    /* \"#utility.yul\":2908:2910   */\n  0x60\n    /* \"#utility.yul\":2896:2905   */\n  dup5\n    /* \"#utility.yul\":2887:2894   */\n  dup7\n    /* \"#utility.yul\":2883:2906   */\n  sub\n    /* \"#utility.yul\":2879:2911   */\n  slt\n    /* \"#utility.yul\":2876:2995   */\n  iszero\n  tag_72\n  jumpi\n    /* \"#utility.yul\":2914:2993   */\n  tag_73\n  tag_24\n  jump\t// in\ntag_73:\n    /* \"#utility.yul\":2876:2995   */\ntag_72:\n    /* \"#utility.yul\":3055:3056   */\n  0x00\n    /* \"#utility.yul\":3044:3053   */\n  dup5\n    /* \"#utility.yul\":3040:3057   */\n  add\n    /* \"#utility.yul\":3034:3058   */\n  mload\n    /* \"#utility.yul\":3085:3103   */\n  0xffffffffffffffff\n    /* \"#utility.yul\":3077:3083   */\n  dup2\n    /* \"#utility.yul\":3074:3104   */\n  gt\n    /* \"#utility.yul\":3071:3188   */\n  iszero\n  tag_74\n  jumpi\n    /* \"#utility.yul\":3107:3186   */\n  tag_75\n  tag_25\n  jump\t// in\ntag_75:\n    /* \"#utility.yul\":3071:3188   */\ntag_74:\n    /* \"#utility.yul\":3212:3286   */\n  tag_76\n    /* \"#utility.yul\":3278:3285   */\n  dup7\n    /* \"#utility.yul\":3269:3275   */\n  dup3\n    /* \"#utility.yul\":3258:3267   */\n  dup8\n    /* \"#utility.yul\":3254:3276   */\n  add\n    /* \"#utility.yul\":3212:3286   */\n  tag_35\n  jump\t// in\ntag_76:\n    /* \"#utility.yul\":3202:3286   */\n  swap4\n  pop\n    /* \"#utility.yul\":3005:3296   */\n  pop\n    /* \"#utility.yul\":3356:3358   */\n  0x20\n    /* \"#utility.yul\":3345:3354   */\n  dup5\n    /* \"#utility.yul\":3341:3359   */\n  add\n    /* \"#utility.yul\":3335:3360   */\n  mload\n    /* \"#utility.yul\":3387:3405   */\n  0xffffffffffffffff\n    /* \"#utility.yul\":3379:3385   */\n  dup2\n    /* \"#utility.yul\":3376:3406   */\n  gt\n    /* \"#utility.yul\":3373:3490   */\n  iszero\n  tag_77\n  jumpi\n    /* \"#utility.yul\":3409:3488   */\n  tag_78\n  tag_25\n  jump\t// in\ntag_78:\n    /* \"#utility.yul\":3373:3490   */\ntag_77:\n    /* \"#utility.yul\":3514:3588   */\n  tag_79\n    /* \"#utility.yul\":3580:3587   */\n  dup7\n    /* \"#utility.yul\":3571:3577   */\n  dup3\n    /* \"#utility.yul\":3560:3569   */\n  dup8\n    /* \"#utility.yul\":3556:3578   */\n  add\n    /* \"#utility.yul\":3514:3588   */\n  tag_35\n  jump\t// in\ntag_79:\n    /* \"#utility.yul\":3504:3588   */\n  swap3\n  pop\n    /* \"#utility.yul\":3306:3598   */\n  pop\n    /* \"#utility.yul\":3658:3660   */\n  0x40\n    /* \"#utility.yul\":3647:3656   */\n  dup5\n    /* \"#utility.yul\":3643:3661   */\n  add\n    /* \"#utility.yul\":3637:3662   */\n  mload\n    /* \"#utility.yul\":3689:3707   */\n  0xffffffffffffffff\n    /* \"#utility.yul\":3681:3687   */\n  dup2\n    /* \"#utility.yul\":3678:3708   */\n  gt\n    /* \"#utility.yul\":3675:3792   */\n  iszero\n  tag_80\n  jumpi\n    /* \"#utility.yul\":3711:3790   */\n  tag_81\n  tag_25\n  jump\t// in\ntag_81:\n    /* \"#utility.yul\":3675:3792   */\ntag_80:\n    /* \"#utility.yul\":3816:3890   */\n  tag_82\n    /* \"#utility.yul\":3882:3889   */\n  dup7\n    /* \"#utility.yul\":3873:3879   */\n  dup3\n    /* \"#utility.yul\":3862:3871   */\n  dup8\n    /* \"#utility.yul\":3858:3880   */\n  add\n    /* \"#utility.yul\":3816:3890   */\n  tag_35\n  jump\t// in\ntag_82:\n    /* \"#utility.yul\":3806:3890   */\n  swap2\n  pop\n    /* \"#utility.yul\":3608:3900   */\n  pop\n    /* \"#utility.yul\":2725:3907   */\n  swap3\n  pop\n  swap3\n  pop\n  swap3\n  jump\t// out\n    /* \"#utility.yul\":3913:4093   */\ntag_36:\n    /* \"#utility.yul\":3961:4038   */\n  0x4e487b7100000000000000000000000000000000000000000000000000000000\n    /* \"#utility.yul\":3958:3959   */\n  0x00\n    /* \"#utility.yul\":3951:4039   */\n  mstore\n    /* \"#utility.yul\":4058:4062   */\n  0x22\n    /* \"#utility.yul\":4055:4056   */\n  0x04\n    /* \"#utility.yul\":4048:4063   */\n  mstore\n    /* \"#utility.yul\":4082:4086   */\n  0x24\n    /* \"#utility.yul\":4079:4080   */\n  0x00\n    /* \"#utility.yul\":4072:4087   */\n  revert\n    /* \"#utility.yul\":4099:4419   */\ntag_7:\n    /* \"#utility.yul\":4143:4149   */\n  0x00\n    /* \"#utility.yul\":4180:4181   */\n  0x02\n    /* \"#utility.yul\":4174:4178   */\n  dup3\n    /* \"#utility.yul\":4170:4182   */\n  div\n    /* \"#utility.yul\":4160:4182   */\n  swap1\n  pop\n    /* \"#utility.yul\":4227:4228   */\n  0x01\n    /* \"#utility.yul\":4221:4225   */\n  dup3\n    /* \"#utility.yul\":4217:4229   */\n  and\n    /* \"#utility.yul\":4248:4266   */\n  dup1\n    /* \"#utility.yul\":4238:4319   */\n  tag_85\n  jumpi\n    /* \"#utility.yul\":4304:4308   */\n  0x7f\n    /* \"#utility.yul\":4296:4302   */\n  dup3\n    /* \"#utility.yul\":4292:4309   */\n  and\n    /* \"#utility.yul\":4282:4309   */\n  swap2\n  pop\n    /* \"#utility.yul\":4238:4319   */\ntag_85:\n    /* \"#utility.yul\":4366:4368   */\n  0x20\n    /* \"#utility.yul\":4358:4364   */\n  dup3\n    /* \"#utility.yul\":4355:4369   */\n  lt\n    /* \"#utility.yul\":4335:4353   */\n  dup2\n    /* \"#utility.yul\":4332:4370   */\n  sub\n    /* \"#utility.yul\":4329:4413   */\n  tag_86\n  jumpi\n    /* \"#utility.yul\":4385:4403   */\n  tag_87\n  tag_36\n  jump\t// in\ntag_87:\n    /* \"#utility.yul\":4329:4413   */\ntag_86:\n    /* \"#utility.yul\":4150:4419   */\n  pop\n    /* \"#utility.yul\":4099:4419   */\n  swap2\n  swap1\n  pop\n  jump\t// out\n    /* \"contracts/estudiantes.sol\":61:4478  contract estudiante ... */\ntag_22:\n  dataSize(sub_0)\n  dup1\n  dataOffset(sub_0)\n  0x00\n  codecopy\n  0x00\n  return\nstop\n\nsub_0: assembly {\n        /* \"contracts/estudiantes.sol\":61:4478  contract estudiante ... */\n      mstore(0x40, 0x80)\n      callvalue\n      dup1\n      iszero\n      tag_1\n      jumpi\n      0x00\n      dup1\n      revert\n    tag_1:\n      pop\n      jumpi(tag_2, lt(calldatasize, 0x04))\n      shr(0xe0, calldataload(0x00))\n      dup1\n      0x7b2e0829\n      gt\n      tag_10\n      jumpi\n      dup1\n      0x7b2e0829\n      eq\n      tag_6\n      jumpi\n      dup1\n      0x811d86c8\n      eq\n      tag_7\n      jumpi\n      dup1\n      0x972a8576\n      eq\n      tag_8\n      jumpi\n      dup1\n      0xdeafcc41\n      eq\n      tag_9\n      jumpi\n      jump(tag_2)\n    tag_10:\n      dup1\n      0x03b0779c\n      eq\n      tag_3\n      jumpi\n      dup1\n      0x2bd228f9\n      eq\n      tag_4\n      jumpi\n      dup1\n      0x7346a9fa\n      eq\n      tag_5\n      jumpi\n    tag_2:\n      0x00\n      dup1\n      revert\n        /* \"contracts/estudiantes.sol\":2316:2627  function nota_materia(string memory materia) public view returns (uint8)... */\n    tag_3:\n      tag_11\n      0x04\n      dup1\n      calldatasize\n      sub\n      dup2\n      add\n      swap1\n      tag_12\n      swap2\n      swap1\n      tag_13\n      jump\t// in\n    tag_12:\n      tag_14\n      jump\t// in\n    tag_11:\n      mload(0x40)\n      tag_15\n      swap2\n      swap1\n      tag_16\n      jump\t// in\n    tag_15:\n      mload(0x40)\n      dup1\n      swap2\n      sub\n      swap1\n      return\n        /* \"contracts/estudiantes.sol\":1550:2308  function set_nota_materia(uint8 nota, string memory materia) public ... */\n    tag_4:\n      tag_17\n      0x04\n      dup1\n      calldatasize\n      sub\n      dup2\n      add\n      swap1\n      tag_18\n      swap2\n      swap1\n      tag_19\n      jump\t// in\n    tag_18:\n      tag_20\n      jump\t// in\n    tag_17:\n      stop\n        /* \"contracts/estudiantes.sol\":1005:1411  function nombre_completo() public view returns (string memory)... */\n    tag_5:\n      tag_21\n      tag_22\n      jump\t// in\n    tag_21:\n      mload(0x40)\n      tag_23\n      swap2\n      swap1\n      tag_24\n      jump\t// in\n    tag_23:\n      mload(0x40)\n      dup1\n      swap2\n      sub\n      swap1\n      return\n        /* \"contracts/estudiantes.sol\":3229:4471  function promedio() public view returns (uint)... */\n    tag_6:\n      tag_25\n      tag_26\n      jump\t// in\n    tag_25:\n      mload(0x40)\n      tag_27\n      swap2\n      swap1\n      tag_28\n      jump\t// in\n    tag_27:\n      mload(0x40)\n      dup1\n      swap2\n      sub\n      swap1\n      return\n        /* \"contracts/estudiantes.sol\":2636:3221  function aprobo(string memory materia) public view returns (bool)... */\n    tag_7:\n      tag_29\n      0x04\n      dup1\n      calldatasize\n      sub\n      dup2\n      add\n      swap1\n      tag_30\n      swap2\n      swap1\n      tag_13\n      jump\t// in\n    tag_30:\n      tag_31\n      jump\t// in\n    tag_29:\n      mload(0x40)\n      tag_32\n      swap2\n      swap1\n      tag_33\n      jump\t// in\n    tag_32:\n      mload(0x40)\n      dup1\n      swap2\n      sub\n      swap1\n      return\n        /* \"contracts/estudiantes.sol\":864:997  function apellido() public view returns (string memory)... */\n    tag_8:\n      tag_34\n      tag_35\n      jump\t// in\n    tag_34:\n      mload(0x40)\n      tag_36\n      swap2\n      swap1\n      tag_24\n      jump\t// in\n    tag_36:\n      mload(0x40)\n      dup1\n      swap2\n      sub\n      swap1\n      return\n        /* \"contracts/estudiantes.sol\":1419:1542  function curso() public view returns(string memory)... */\n    tag_9:\n      tag_37\n      tag_38\n      jump\t// in\n    tag_37:\n      mload(0x40)\n      tag_39\n      swap2\n      swap1\n      tag_24\n      jump\t// in\n    tag_39:\n      mload(0x40)\n      dup1\n      swap2\n      sub\n      swap1\n      return\n        /* \"contracts/estudiantes.sol\":2316:2627  function nota_materia(string memory materia) public view returns (uint8)... */\n    tag_14:\n        /* \"contracts/estudiantes.sol\":2382:2387  uint8 */\n      0x00\n        /* \"contracts/estudiantes.sol\":2413:2427  notas_materias */\n      0x05\n        /* \"contracts/estudiantes.sol\":2428:2435  materia */\n      dup3\n        /* \"contracts/estudiantes.sol\":2413:2436  notas_materias[materia] */\n      mload(0x40)\n      tag_41\n      swap2\n      swap1\n      tag_42\n      jump\t// in\n    tag_41:\n      swap1\n      dup2\n      mstore\n      0x20\n      add\n      mload(0x40)\n      dup1\n      swap2\n      sub\n      swap1\n      keccak256\n      0x00\n      swap1\n      sload\n      swap1\n      0x0100\n      exp\n      swap1\n      div\n      0xff\n      and\n        /* \"contracts/estudiantes.sol\":2406:2436  return notas_materias[materia] */\n      swap1\n      pop\n        /* \"contracts/estudiantes.sol\":2316:2627  function nota_materia(string memory materia) public view returns (uint8)... */\n      swap2\n      swap1\n      pop\n      jump\t// out\n        /* \"contracts/estudiantes.sol\":1550:2308  function set_nota_materia(uint8 nota, string memory materia) public ... */\n    tag_20:\n        /* \"contracts/estudiantes.sol\":1657:1665  _docente */\n      0x04\n      0x00\n      swap1\n      sload\n      swap1\n      0x0100\n      exp\n      swap1\n      div\n      0xffffffffffffffffffffffffffffffffffffffff\n      and\n        /* \"contracts/estudiantes.sol\":1643:1665  msg.sender == _docente */\n      0xffffffffffffffffffffffffffffffffffffffff\n      and\n        /* \"contracts/estudiantes.sol\":1643:1653  msg.sender */\n      caller\n        /* \"contracts/estudiantes.sol\":1643:1665  msg.sender == _docente */\n      0xffffffffffffffffffffffffffffffffffffffff\n      and\n      eq\n        /* \"contracts/estudiantes.sol\":1635:1703  require(msg.sender == _docente, \"Sola la docente puede poner notas\") */\n      tag_44\n      jumpi\n      mload(0x40)\n      0x08c379a000000000000000000000000000000000000000000000000000000000\n      dup2\n      mstore\n      0x04\n      add\n      tag_45\n      swap1\n      tag_46\n      jump\t// in\n    tag_45:\n      mload(0x40)\n      dup1\n      swap2\n      sub\n      swap1\n      revert\n    tag_44:\n        /* \"contracts/estudiantes.sol\":1740:1744  nota */\n      dup2\n        /* \"contracts/estudiantes.sol\":1714:1728  notas_materias */\n      0x05\n        /* \"contracts/estudiantes.sol\":1729:1736  materia */\n      dup3\n        /* \"contracts/estudiantes.sol\":1714:1737  notas_materias[materia] */\n      mload(0x40)\n      tag_47\n      swap2\n      swap1\n      tag_42\n      jump\t// in\n    tag_47:\n      swap1\n      dup2\n      mstore\n      0x20\n      add\n      mload(0x40)\n      dup1\n      swap2\n      sub\n      swap1\n      keccak256\n      0x00\n        /* \"contracts/estudiantes.sol\":1714:1744  notas_materias[materia] = nota */\n      0x0100\n      exp\n      dup2\n      sload\n      dup2\n      0xff\n      mul\n      not\n      and\n      swap1\n      dup4\n      0xff\n      and\n      mul\n      or\n      swap1\n      sstore\n      pop\n        /* \"contracts/estudiantes.sol\":1755:1770  recorrerMapping */\n      0x06\n        /* \"contracts/estudiantes.sol\":1776:1783  materia */\n      dup2\n        /* \"contracts/estudiantes.sol\":1755:1784  recorrerMapping.push(materia) */\n      swap1\n      dup1\n      0x01\n      dup2\n      sload\n      add\n      dup1\n      dup3\n      sstore\n      dup1\n      swap2\n      pop\n      pop\n      0x01\n      swap1\n      sub\n      swap1\n      0x00\n      mstore\n      keccak256(0x00, 0x20)\n      add\n      0x00\n      swap1\n      swap2\n      swap1\n      swap2\n      swap1\n      swap2\n      pop\n      swap1\n      dup2\n      tag_49\n      swap2\n      swap1\n      tag_50\n      jump\t// in\n    tag_49:\n      pop\n        /* \"contracts/estudiantes.sol\":1550:2308  function set_nota_materia(uint8 nota, string memory materia) public ... */\n      pop\n      pop\n      jump\t// out\n        /* \"contracts/estudiantes.sol\":1005:1411  function nombre_completo() public view returns (string memory)... */\n    tag_22:\n        /* \"contracts/estudiantes.sol\":1053:1066  string memory */\n      0x60\n        /* \"contracts/estudiantes.sol\":1116:1123  _nombre */\n      0x00\n        /* \"contracts/estudiantes.sol\":1130:1139  _apellido */\n      0x01\n        /* \"contracts/estudiantes.sol\":1099:1140  abi.encodePacked(_nombre, \" \", _apellido) */\n      add(0x20, mload(0x40))\n      tag_52\n      swap3\n      swap2\n      swap1\n      tag_53\n      jump\t// in\n    tag_52:\n      mload(0x40)\n      0x20\n      dup2\n      dup4\n      sub\n      sub\n      dup2\n      mstore\n      swap1\n      0x40\n      mstore\n        /* \"contracts/estudiantes.sol\":1084:1141  return string (abi.encodePacked(_nombre, \" \", _apellido)) */\n      swap1\n      pop\n        /* \"contracts/estudiantes.sol\":1005:1411  function nombre_completo() public view returns (string memory)... */\n      swap1\n      jump\t// out\n        /* \"contracts/estudiantes.sol\":3229:4471  function promedio() public view returns (uint)... */\n    tag_26:\n        /* \"contracts/estudiantes.sol\":3270:3274  uint */\n      0x00\n        /* \"contracts/estudiantes.sol\":3292:3313  uint cantidadMaterias */\n      dup1\n        /* \"contracts/estudiantes.sol\":3316:3331  recorrerMapping */\n      0x06\n        /* \"contracts/estudiantes.sol\":3316:3338  recorrerMapping.length */\n      dup1\n      sload\n      swap1\n      pop\n        /* \"contracts/estudiantes.sol\":3292:3338  uint cantidadMaterias = recorrerMapping.length */\n      swap1\n      pop\n        /* \"contracts/estudiantes.sol\":3349:3367  uint notas_totales */\n      0x00\n        /* \"contracts/estudiantes.sol\":3397:3404  uint8 i */\n      dup1\n        /* \"contracts/estudiantes.sol\":3392:3524  for (uint8 i = 0; i < cantidadMaterias; i++)... */\n    tag_55:\n        /* \"contracts/estudiantes.sol\":3414:3430  cantidadMaterias */\n      dup3\n        /* \"contracts/estudiantes.sol\":3410:3411  i */\n      dup2\n        /* \"contracts/estudiantes.sol\":3410:3430  i < cantidadMaterias */\n      0xff\n      and\n      lt\n        /* \"contracts/estudiantes.sol\":3392:3524  for (uint8 i = 0; i < cantidadMaterias; i++)... */\n      iszero\n      tag_56\n      jumpi\n        /* \"contracts/estudiantes.sol\":3478:3492  notas_materias */\n      0x05\n        /* \"contracts/estudiantes.sol\":3493:3508  recorrerMapping */\n      0x06\n        /* \"contracts/estudiantes.sol\":3509:3510  i */\n      dup3\n        /* \"contracts/estudiantes.sol\":3493:3511  recorrerMapping[i] */\n      0xff\n      and\n      dup2\n      sload\n      dup2\n      lt\n      tag_58\n      jumpi\n      tag_59\n      tag_60\n      jump\t// in\n    tag_59:\n    tag_58:\n      swap1\n      0x00\n      mstore\n      keccak256(0x00, 0x20)\n      add\n        /* \"contracts/estudiantes.sol\":3478:3512  notas_materias[recorrerMapping[i]] */\n      mload(0x40)\n      tag_62\n      swap2\n      swap1\n      tag_63\n      jump\t// in\n    tag_62:\n      swap1\n      dup2\n      mstore\n      0x20\n      add\n      mload(0x40)\n      dup1\n      swap2\n      sub\n      swap1\n      keccak256\n      0x00\n      swap1\n      sload\n      swap1\n      0x0100\n      exp\n      swap1\n      div\n      0xff\n      and\n        /* \"contracts/estudiantes.sol\":3461:3512  notas_totales += notas_materias[recorrerMapping[i]] */\n      0xff\n      and\n      dup3\n      tag_64\n      swap2\n      swap1\n      tag_65\n      jump\t// in\n    tag_64:\n      swap2\n      pop\n        /* \"contracts/estudiantes.sol\":3432:3435  i++ */\n      dup1\n      dup1\n      tag_66\n      swap1\n      tag_67\n      jump\t// in\n    tag_66:\n      swap2\n      pop\n      pop\n        /* \"contracts/estudiantes.sol\":3392:3524  for (uint8 i = 0; i < cantidadMaterias; i++)... */\n      jump(tag_55)\n    tag_56:\n      pop\n        /* \"contracts/estudiantes.sol\":3559:3575  cantidadMaterias */\n      dup2\n        /* \"contracts/estudiantes.sol\":3543:3556  notas_totales */\n      dup2\n        /* \"contracts/estudiantes.sol\":3543:3575  notas_totales / cantidadMaterias */\n      tag_68\n      swap2\n      swap1\n      tag_69\n      jump\t// in\n    tag_68:\n        /* \"contracts/estudiantes.sol\":3536:3575  return notas_totales / cantidadMaterias */\n      swap3\n      pop\n      pop\n      pop\n        /* \"contracts/estudiantes.sol\":3229:4471  function promedio() public view returns (uint)... */\n      swap1\n      jump\t// out\n        /* \"contracts/estudiantes.sol\":2636:3221  function aprobo(string memory materia) public view returns (bool)... */\n    tag_31:\n        /* \"contracts/estudiantes.sol\":2696:2700  bool */\n      0x00\n        /* \"contracts/estudiantes.sol\":2749:2751  60 */\n      0x3c\n        /* \"contracts/estudiantes.sol\":2722:2736  notas_materias */\n      0x05\n        /* \"contracts/estudiantes.sol\":2737:2744  materia */\n      dup4\n        /* \"contracts/estudiantes.sol\":2722:2745  notas_materias[materia] */\n      mload(0x40)\n      tag_71\n      swap2\n      swap1\n      tag_42\n      jump\t// in\n    tag_71:\n      swap1\n      dup2\n      mstore\n      0x20\n      add\n      mload(0x40)\n      dup1\n      swap2\n      sub\n      swap1\n      keccak256\n      0x00\n      swap1\n      sload\n      swap1\n      0x0100\n      exp\n      swap1\n      div\n      0xff\n      and\n        /* \"contracts/estudiantes.sol\":2722:2751  notas_materias[materia] >= 60 */\n      0xff\n      and\n      lt\n        /* \"contracts/estudiantes.sol\":2718:2800  if (notas_materias[materia] >= 60)... */\n      tag_72\n      jumpi\n        /* \"contracts/estudiantes.sol\":2784:2788  true */\n      0x01\n        /* \"contracts/estudiantes.sol\":2777:2788  return true */\n      swap1\n      pop\n      jump(tag_70)\n        /* \"contracts/estudiantes.sol\":2718:2800  if (notas_materias[materia] >= 60)... */\n    tag_72:\n        /* \"contracts/estudiantes.sol\":2817:2822  false */\n      0x00\n        /* \"contracts/estudiantes.sol\":2810:2822  return false */\n      swap1\n      pop\n        /* \"contracts/estudiantes.sol\":2636:3221  function aprobo(string memory materia) public view returns (bool)... */\n    tag_70:\n      swap2\n      swap1\n      pop\n      jump\t// out\n        /* \"contracts/estudiantes.sol\":864:997  function apellido() public view returns (string memory)... */\n    tag_35:\n        /* \"contracts/estudiantes.sol\":905:918  string memory */\n      0x60\n        /* \"contracts/estudiantes.sol\":943:952  _apellido */\n      0x01\n        /* \"contracts/estudiantes.sol\":936:952  return _apellido */\n      dup1\n      sload\n      tag_74\n      swap1\n      tag_75\n      jump\t// in\n    tag_74:\n      dup1\n      0x1f\n      add\n      0x20\n      dup1\n      swap2\n      div\n      mul\n      0x20\n      add\n      mload(0x40)\n      swap1\n      dup2\n      add\n      0x40\n      mstore\n      dup1\n      swap3\n      swap2\n      swap1\n      dup2\n      dup2\n      mstore\n      0x20\n      add\n      dup3\n      dup1\n      sload\n      tag_76\n      swap1\n      tag_75\n      jump\t// in\n    tag_76:\n      dup1\n      iszero\n      tag_77\n      jumpi\n      dup1\n      0x1f\n      lt\n      tag_78\n      jumpi\n      0x0100\n      dup1\n      dup4\n      sload\n      div\n      mul\n      dup4\n      mstore\n      swap2\n      0x20\n      add\n      swap2\n      jump(tag_77)\n    tag_78:\n      dup3\n      add\n      swap2\n      swap1\n      0x00\n      mstore\n      keccak256(0x00, 0x20)\n      swap1\n    tag_79:\n      dup2\n      sload\n      dup2\n      mstore\n      swap1\n      0x01\n      add\n      swap1\n      0x20\n      add\n      dup1\n      dup4\n      gt\n      tag_79\n      jumpi\n      dup3\n      swap1\n      sub\n      0x1f\n      and\n      dup3\n      add\n      swap2\n    tag_77:\n      pop\n      pop\n      pop\n      pop\n      pop\n      swap1\n      pop\n        /* \"contracts/estudiantes.sol\":864:997  function apellido() public view returns (string memory)... */\n      swap1\n      jump\t// out\n        /* \"contracts/estudiantes.sol\":1419:1542  function curso() public view returns(string memory)... */\n    tag_38:\n        /* \"contracts/estudiantes.sol\":1456:1469  string memory */\n      0x60\n        /* \"contracts/estudiantes.sol\":1494:1500  _curso */\n      0x03\n        /* \"contracts/estudiantes.sol\":1487:1500  return _curso */\n      dup1\n      sload\n      tag_81\n      swap1\n      tag_75\n      jump\t// in\n    tag_81:\n      dup1\n      0x1f\n      add\n      0x20\n      dup1\n      swap2\n      div\n      mul\n      0x20\n      add\n      mload(0x40)\n      swap1\n      dup2\n      add\n      0x40\n      mstore\n      dup1\n      swap3\n      swap2\n      swap1\n      dup2\n      dup2\n      mstore\n      0x20\n      add\n      dup3\n      dup1\n      sload\n      tag_82\n      swap1\n      tag_75\n      jump\t// in\n    tag_82:\n      dup1\n      iszero\n      tag_83\n      jumpi\n      dup1\n      0x1f\n      lt\n      tag_84\n      jumpi\n      0x0100\n      dup1\n      dup4\n      sload\n      div\n      mul\n      dup4\n      mstore\n      swap2\n      0x20\n      add\n      swap2\n      jump(tag_83)\n    tag_84:\n      dup3\n      add\n      swap2\n      swap1\n      0x00\n      mstore\n      keccak256(0x00, 0x20)\n      swap1\n    tag_85:\n      dup2\n      sload\n      dup2\n      mstore\n      swap1\n      0x01\n      add\n      swap1\n      0x20\n      add\n      dup1\n      dup4\n      gt\n      tag_85\n      jumpi\n      dup3\n      swap1\n      sub\n      0x1f\n      and\n      dup3\n      add\n      swap2\n    tag_83:\n      pop\n      pop\n      pop\n      pop\n      pop\n      swap1\n      pop\n        /* \"contracts/estudiantes.sol\":1419:1542  function curso() public view returns(string memory)... */\n      swap1\n      jump\t// out\n        /* \"#utility.yul\":7:82   */\n    tag_86:\n        /* \"#utility.yul\":40:46   */\n      0x00\n        /* \"#utility.yul\":73:75   */\n      0x40\n        /* \"#utility.yul\":67:76   */\n      mload\n        /* \"#utility.yul\":57:76   */\n      swap1\n      pop\n        /* \"#utility.yul\":7:82   */\n      swap1\n      jump\t// out\n        /* \"#utility.yul\":88:205   */\n    tag_87:\n        /* \"#utility.yul\":197:198   */\n      0x00\n        /* \"#utility.yul\":194:195   */\n      dup1\n        /* \"#utility.yul\":187:199   */\n      revert\n        /* \"#utility.yul\":211:328   */\n    tag_88:\n        /* \"#utility.yul\":320:321   */\n      0x00\n        /* \"#utility.yul\":317:318   */\n      dup1\n        /* \"#utility.yul\":310:322   */\n      revert\n        /* \"#utility.yul\":334:451   */\n    tag_89:\n        /* \"#utility.yul\":443:444   */\n      0x00\n        /* \"#utility.yul\":440:441   */\n      dup1\n        /* \"#utility.yul\":433:445   */\n      revert\n        /* \"#utility.yul\":457:574   */\n    tag_90:\n        /* \"#utility.yul\":566:567   */\n      0x00\n        /* \"#utility.yul\":563:564   */\n      dup1\n        /* \"#utility.yul\":556:568   */\n      revert\n        /* \"#utility.yul\":580:682   */\n    tag_91:\n        /* \"#utility.yul\":621:627   */\n      0x00\n        /* \"#utility.yul\":672:674   */\n      0x1f\n        /* \"#utility.yul\":668:675   */\n      not\n        /* \"#utility.yul\":663:665   */\n      0x1f\n        /* \"#utility.yul\":656:661   */\n      dup4\n        /* \"#utility.yul\":652:666   */\n      add\n        /* \"#utility.yul\":648:676   */\n      and\n        /* \"#utility.yul\":638:676   */\n      swap1\n      pop\n        /* \"#utility.yul\":580:682   */\n      swap2\n      swap1\n      pop\n      jump\t// out\n        /* \"#utility.yul\":688:868   */\n    tag_92:\n        /* \"#utility.yul\":736:813   */\n      0x4e487b7100000000000000000000000000000000000000000000000000000000\n        /* \"#utility.yul\":733:734   */\n      0x00\n        /* \"#utility.yul\":726:814   */\n      mstore\n        /* \"#utility.yul\":833:837   */\n      0x41\n        /* \"#utility.yul\":830:831   */\n      0x04\n        /* \"#utility.yul\":823:838   */\n      mstore\n        /* \"#utility.yul\":857:861   */\n      0x24\n        /* \"#utility.yul\":854:855   */\n      0x00\n        /* \"#utility.yul\":847:862   */\n      revert\n        /* \"#utility.yul\":874:1155   */\n    tag_93:\n        /* \"#utility.yul\":957:984   */\n      tag_145\n        /* \"#utility.yul\":979:983   */\n      dup3\n        /* \"#utility.yul\":957:984   */\n      tag_91\n      jump\t// in\n    tag_145:\n        /* \"#utility.yul\":949:955   */\n      dup2\n        /* \"#utility.yul\":945:985   */\n      add\n        /* \"#utility.yul\":1087:1093   */\n      dup2\n        /* \"#utility.yul\":1075:1085   */\n      dup2\n        /* \"#utility.yul\":1072:1094   */\n      lt\n        /* \"#utility.yul\":1051:1069   */\n      0xffffffffffffffff\n        /* \"#utility.yul\":1039:1049   */\n      dup3\n        /* \"#utility.yul\":1036:1070   */\n      gt\n        /* \"#utility.yul\":1033:1095   */\n      or\n        /* \"#utility.yul\":1030:1118   */\n      iszero\n      tag_146\n      jumpi\n        /* \"#utility.yul\":1098:1116   */\n      tag_147\n      tag_92\n      jump\t// in\n    tag_147:\n        /* \"#utility.yul\":1030:1118   */\n    tag_146:\n        /* \"#utility.yul\":1138:1148   */\n      dup1\n        /* \"#utility.yul\":1134:1136   */\n      0x40\n        /* \"#utility.yul\":1127:1149   */\n      mstore\n        /* \"#utility.yul\":917:1155   */\n      pop\n        /* \"#utility.yul\":874:1155   */\n      pop\n      pop\n      jump\t// out\n        /* \"#utility.yul\":1161:1290   */\n    tag_94:\n        /* \"#utility.yul\":1195:1201   */\n      0x00\n        /* \"#utility.yul\":1222:1242   */\n      tag_149\n      tag_86\n      jump\t// in\n    tag_149:\n        /* \"#utility.yul\":1212:1242   */\n      swap1\n      pop\n        /* \"#utility.yul\":1251:1284   */\n      tag_150\n        /* \"#utility.yul\":1279:1283   */\n      dup3\n        /* \"#utility.yul\":1271:1277   */\n      dup3\n        /* \"#utility.yul\":1251:1284   */\n      tag_93\n      jump\t// in\n    tag_150:\n        /* \"#utility.yul\":1161:1290   */\n      swap2\n      swap1\n      pop\n      jump\t// out\n        /* \"#utility.yul\":1296:1604   */\n    tag_95:\n        /* \"#utility.yul\":1358:1362   */\n      0x00\n        /* \"#utility.yul\":1448:1466   */\n      0xffffffffffffffff\n        /* \"#utility.yul\":1440:1446   */\n      dup3\n        /* \"#utility.yul\":1437:1467   */\n      gt\n        /* \"#utility.yul\":1434:1490   */\n      iszero\n      tag_152\n      jumpi\n        /* \"#utility.yul\":1470:1488   */\n      tag_153\n      tag_92\n      jump\t// in\n    tag_153:\n        /* \"#utility.yul\":1434:1490   */\n    tag_152:\n        /* \"#utility.yul\":1508:1537   */\n      tag_154\n        /* \"#utility.yul\":1530:1536   */\n      dup3\n        /* \"#utility.yul\":1508:1537   */\n      tag_91\n      jump\t// in\n    tag_154:\n        /* \"#utility.yul\":1500:1537   */\n      swap1\n      pop\n        /* \"#utility.yul\":1592:1596   */\n      0x20\n        /* \"#utility.yul\":1586:1590   */\n      dup2\n        /* \"#utility.yul\":1582:1597   */\n      add\n        /* \"#utility.yul\":1574:1597   */\n      swap1\n      pop\n        /* \"#utility.yul\":1296:1604   */\n      swap2\n      swap1\n      pop\n      jump\t// out\n        /* \"#utility.yul\":1610:1764   */\n    tag_96:\n        /* \"#utility.yul\":1694:1700   */\n      dup3\n        /* \"#utility.yul\":1689:1692   */\n      dup2\n        /* \"#utility.yul\":1684:1687   */\n      dup4\n        /* \"#utility.yul\":1671:1701   */\n      calldatacopy\n        /* \"#utility.yul\":1756:1757   */\n      0x00\n        /* \"#utility.yul\":1747:1753   */\n      dup4\n        /* \"#utility.yul\":1742:1745   */\n      dup4\n        /* \"#utility.yul\":1738:1754   */\n      add\n        /* \"#utility.yul\":1731:1758   */\n      mstore\n        /* \"#utility.yul\":1610:1764   */\n      pop\n      pop\n      pop\n      jump\t// out\n        /* \"#utility.yul\":1770:2182   */\n    tag_97:\n        /* \"#utility.yul\":1848:1853   */\n      0x00\n        /* \"#utility.yul\":1873:1939   */\n      tag_157\n        /* \"#utility.yul\":1889:1938   */\n      tag_158\n        /* \"#utility.yul\":1931:1937   */\n      dup5\n        /* \"#utility.yul\":1889:1938   */\n      tag_95\n      jump\t// in\n    tag_158:\n        /* \"#utility.yul\":1873:1939   */\n      tag_94\n      jump\t// in\n    tag_157:\n        /* \"#utility.yul\":1864:1939   */\n      swap1\n      pop\n        /* \"#utility.yul\":1962:1968   */\n      dup3\n        /* \"#utility.yul\":1955:1960   */\n      dup2\n        /* \"#utility.yul\":1948:1969   */\n      mstore\n        /* \"#utility.yul\":2000:2004   */\n      0x20\n        /* \"#utility.yul\":1993:1998   */\n      dup2\n        /* \"#utility.yul\":1989:2005   */\n      add\n        /* \"#utility.yul\":2038:2041   */\n      dup5\n        /* \"#utility.yul\":2029:2035   */\n      dup5\n        /* \"#utility.yul\":2024:2027   */\n      dup5\n        /* \"#utility.yul\":2020:2036   */\n      add\n        /* \"#utility.yul\":2017:2042   */\n      gt\n        /* \"#utility.yul\":2014:2126   */\n      iszero\n      tag_159\n      jumpi\n        /* \"#utility.yul\":2045:2124   */\n      tag_160\n      tag_90\n      jump\t// in\n    tag_160:\n        /* \"#utility.yul\":2014:2126   */\n    tag_159:\n        /* \"#utility.yul\":2135:2176   */\n      tag_161\n        /* \"#utility.yul\":2169:2175   */\n      dup5\n        /* \"#utility.yul\":2164:2167   */\n      dup3\n        /* \"#utility.yul\":2159:2162   */\n      dup6\n        /* \"#utility.yul\":2135:2176   */\n      tag_96\n      jump\t// in\n    tag_161:\n        /* \"#utility.yul\":1854:2182   */\n      pop\n        /* \"#utility.yul\":1770:2182   */\n      swap4\n      swap3\n      pop\n      pop\n      pop\n      jump\t// out\n        /* \"#utility.yul\":2202:2542   */\n    tag_98:\n        /* \"#utility.yul\":2258:2263   */\n      0x00\n        /* \"#utility.yul\":2307:2310   */\n      dup3\n        /* \"#utility.yul\":2300:2304   */\n      0x1f\n        /* \"#utility.yul\":2292:2298   */\n      dup4\n        /* \"#utility.yul\":2288:2305   */\n      add\n        /* \"#utility.yul\":2284:2311   */\n      slt\n        /* \"#utility.yul\":2274:2396   */\n      tag_163\n      jumpi\n        /* \"#utility.yul\":2315:2394   */\n      tag_164\n      tag_89\n      jump\t// in\n    tag_164:\n        /* \"#utility.yul\":2274:2396   */\n    tag_163:\n        /* \"#utility.yul\":2432:2438   */\n      dup2\n        /* \"#utility.yul\":2419:2439   */\n      calldataload\n        /* \"#utility.yul\":2457:2536   */\n      tag_165\n        /* \"#utility.yul\":2532:2535   */\n      dup5\n        /* \"#utility.yul\":2524:2530   */\n      dup3\n        /* \"#utility.yul\":2517:2521   */\n      0x20\n        /* \"#utility.yul\":2509:2515   */\n      dup7\n        /* \"#utility.yul\":2505:2522   */\n      add\n        /* \"#utility.yul\":2457:2536   */\n      tag_97\n      jump\t// in\n    tag_165:\n        /* \"#utility.yul\":2448:2536   */\n      swap2\n      pop\n        /* \"#utility.yul\":2264:2542   */\n      pop\n        /* \"#utility.yul\":2202:2542   */\n      swap3\n      swap2\n      pop\n      pop\n      jump\t// out\n        /* \"#utility.yul\":2548:3057   */\n    tag_13:\n        /* \"#utility.yul\":2617:2623   */\n      0x00\n        /* \"#utility.yul\":2666:2668   */\n      0x20\n        /* \"#utility.yul\":2654:2663   */\n      dup3\n        /* \"#utility.yul\":2645:2652   */\n      dup5\n        /* \"#utility.yul\":2641:2664   */\n      sub\n        /* \"#utility.yul\":2637:2669   */\n      slt\n        /* \"#utility.yul\":2634:2753   */\n      iszero\n      tag_167\n      jumpi\n        /* \"#utility.yul\":2672:2751   */\n      tag_168\n      tag_87\n      jump\t// in\n    tag_168:\n        /* \"#utility.yul\":2634:2753   */\n    tag_167:\n        /* \"#utility.yul\":2820:2821   */\n      0x00\n        /* \"#utility.yul\":2809:2818   */\n      dup3\n        /* \"#utility.yul\":2805:2822   */\n      add\n        /* \"#utility.yul\":2792:2823   */\n      calldataload\n        /* \"#utility.yul\":2850:2868   */\n      0xffffffffffffffff\n        /* \"#utility.yul\":2842:2848   */\n      dup2\n        /* \"#utility.yul\":2839:2869   */\n      gt\n        /* \"#utility.yul\":2836:2953   */\n      iszero\n      tag_169\n      jumpi\n        /* \"#utility.yul\":2872:2951   */\n      tag_170\n      tag_88\n      jump\t// in\n    tag_170:\n        /* \"#utility.yul\":2836:2953   */\n    tag_169:\n        /* \"#utility.yul\":2977:3040   */\n      tag_171\n        /* \"#utility.yul\":3032:3039   */\n      dup5\n        /* \"#utility.yul\":3023:3029   */\n      dup3\n        /* \"#utility.yul\":3012:3021   */\n      dup6\n        /* \"#utility.yul\":3008:3030   */\n      add\n        /* \"#utility.yul\":2977:3040   */\n      tag_98\n      jump\t// in\n    tag_171:\n        /* \"#utility.yul\":2967:3040   */\n      swap2\n      pop\n        /* \"#utility.yul\":2763:3050   */\n      pop\n        /* \"#utility.yul\":2548:3057   */\n      swap3\n      swap2\n      pop\n      pop\n      jump\t// out\n        /* \"#utility.yul\":3063:3149   */\n    tag_99:\n        /* \"#utility.yul\":3098:3105   */\n      0x00\n        /* \"#utility.yul\":3138:3142   */\n      0xff\n        /* \"#utility.yul\":3131:3136   */\n      dup3\n        /* \"#utility.yul\":3127:3143   */\n      and\n        /* \"#utility.yul\":3116:3143   */\n      swap1\n      pop\n        /* \"#utility.yul\":3063:3149   */\n      swap2\n      swap1\n      pop\n      jump\t// out\n        /* \"#utility.yul\":3155:3267   */\n    tag_100:\n        /* \"#utility.yul\":3238:3260   */\n      tag_174\n        /* \"#utility.yul\":3254:3259   */\n      dup2\n        /* \"#utility.yul\":3238:3260   */\n      tag_99\n      jump\t// in\n    tag_174:\n        /* \"#utility.yul\":3233:3236   */\n      dup3\n        /* \"#utility.yul\":3226:3261   */\n      mstore\n        /* \"#utility.yul\":3155:3267   */\n      pop\n      pop\n      jump\t// out\n        /* \"#utility.yul\":3273:3487   */\n    tag_16:\n        /* \"#utility.yul\":3362:3366   */\n      0x00\n        /* \"#utility.yul\":3400:3402   */\n      0x20\n        /* \"#utility.yul\":3389:3398   */\n      dup3\n        /* \"#utility.yul\":3385:3403   */\n      add\n        /* \"#utility.yul\":3377:3403   */\n      swap1\n      pop\n        /* \"#utility.yul\":3413:3480   */\n      tag_176\n        /* \"#utility.yul\":3477:3478   */\n      0x00\n        /* \"#utility.yul\":3466:3475   */\n      dup4\n        /* \"#utility.yul\":3462:3479   */\n      add\n        /* \"#utility.yul\":3453:3459   */\n      dup5\n        /* \"#utility.yul\":3413:3480   */\n      tag_100\n      jump\t// in\n    tag_176:\n        /* \"#utility.yul\":3273:3487   */\n      swap3\n      swap2\n      pop\n      pop\n      jump\t// out\n        /* \"#utility.yul\":3493:3611   */\n    tag_101:\n        /* \"#utility.yul\":3564:3586   */\n      tag_178\n        /* \"#utility.yul\":3580:3585   */\n      dup2\n        /* \"#utility.yul\":3564:3586   */\n      tag_99\n      jump\t// in\n    tag_178:\n        /* \"#utility.yul\":3557:3562   */\n      dup2\n        /* \"#utility.yul\":3554:3587   */\n      eq\n        /* \"#utility.yul\":3544:3605   */\n      tag_179\n      jumpi\n        /* \"#utility.yul\":3601:3602   */\n      0x00\n        /* \"#utility.yul\":3598:3599   */\n      dup1\n        /* \"#utility.yul\":3591:3603   */\n      revert\n        /* \"#utility.yul\":3544:3605   */\n    tag_179:\n        /* \"#utility.yul\":3493:3611   */\n      pop\n      jump\t// out\n        /* \"#utility.yul\":3617:3752   */\n    tag_102:\n        /* \"#utility.yul\":3661:3666   */\n      0x00\n        /* \"#utility.yul\":3699:3705   */\n      dup2\n        /* \"#utility.yul\":3686:3706   */\n      calldataload\n        /* \"#utility.yul\":3677:3706   */\n      swap1\n      pop\n        /* \"#utility.yul\":3715:3746   */\n      tag_181\n        /* \"#utility.yul\":3740:3745   */\n      dup2\n        /* \"#utility.yul\":3715:3746   */\n      tag_101\n      jump\t// in\n    tag_181:\n        /* \"#utility.yul\":3617:3752   */\n      swap3\n      swap2\n      pop\n      pop\n      jump\t// out\n        /* \"#utility.yul\":3758:4408   */\n    tag_19:\n        /* \"#utility.yul\":3834:3840   */\n      0x00\n        /* \"#utility.yul\":3842:3848   */\n      dup1\n        /* \"#utility.yul\":3891:3893   */\n      0x40\n        /* \"#utility.yul\":3879:3888   */\n      dup4\n        /* \"#utility.yul\":3870:3877   */\n      dup6\n        /* \"#utility.yul\":3866:3889   */\n      sub\n        /* \"#utility.yul\":3862:3894   */\n      slt\n        /* \"#utility.yul\":3859:3978   */\n      iszero\n      tag_183\n      jumpi\n        /* \"#utility.yul\":3897:3976   */\n      tag_184\n      tag_87\n      jump\t// in\n    tag_184:\n        /* \"#utility.yul\":3859:3978   */\n    tag_183:\n        /* \"#utility.yul\":4017:4018   */\n      0x00\n        /* \"#utility.yul\":4042:4093   */\n      tag_185\n        /* \"#utility.yul\":4085:4092   */\n      dup6\n        /* \"#utility.yul\":4076:4082   */\n      dup3\n        /* \"#utility.yul\":4065:4074   */\n      dup7\n        /* \"#utility.yul\":4061:4083   */\n      add\n        /* \"#utility.yul\":4042:4093   */\n      tag_102\n      jump\t// in\n    tag_185:\n        /* \"#utility.yul\":4032:4093   */\n      swap3\n      pop\n        /* \"#utility.yul\":3988:4103   */\n      pop\n        /* \"#utility.yul\":4170:4172   */\n      0x20\n        /* \"#utility.yul\":4159:4168   */\n      dup4\n        /* \"#utility.yul\":4155:4173   */\n      add\n        /* \"#utility.yul\":4142:4174   */\n      calldataload\n        /* \"#utility.yul\":4201:4219   */\n      0xffffffffffffffff\n        /* \"#utility.yul\":4193:4199   */\n      dup2\n        /* \"#utility.yul\":4190:4220   */\n      gt\n        /* \"#utility.yul\":4187:4304   */\n      iszero\n      tag_186\n      jumpi\n        /* \"#utility.yul\":4223:4302   */\n      tag_187\n      tag_88\n      jump\t// in\n    tag_187:\n        /* \"#utility.yul\":4187:4304   */\n    tag_186:\n        /* \"#utility.yul\":4328:4391   */\n      tag_188\n        /* \"#utility.yul\":4383:4390   */\n      dup6\n        /* \"#utility.yul\":4374:4380   */\n      dup3\n        /* \"#utility.yul\":4363:4372   */\n      dup7\n        /* \"#utility.yul\":4359:4381   */\n      add\n        /* \"#utility.yul\":4328:4391   */\n      tag_98\n      jump\t// in\n    tag_188:\n        /* \"#utility.yul\":4318:4391   */\n      swap2\n      pop\n        /* \"#utility.yul\":4113:4401   */\n      pop\n        /* \"#utility.yul\":3758:4408   */\n      swap3\n      pop\n      swap3\n      swap1\n      pop\n      jump\t// out\n        /* \"#utility.yul\":4414:4513   */\n    tag_103:\n        /* \"#utility.yul\":4466:4472   */\n      0x00\n        /* \"#utility.yul\":4500:4505   */\n      dup2\n        /* \"#utility.yul\":4494:4506   */\n      mload\n        /* \"#utility.yul\":4484:4506   */\n      swap1\n      pop\n        /* \"#utility.yul\":4414:4513   */\n      swap2\n      swap1\n      pop\n      jump\t// out\n        /* \"#utility.yul\":4519:4688   */\n    tag_104:\n        /* \"#utility.yul\":4603:4614   */\n      0x00\n        /* \"#utility.yul\":4637:4643   */\n      dup3\n        /* \"#utility.yul\":4632:4635   */\n      dup3\n        /* \"#utility.yul\":4625:4644   */\n      mstore\n        /* \"#utility.yul\":4677:4681   */\n      0x20\n        /* \"#utility.yul\":4672:4675   */\n      dup3\n        /* \"#utility.yul\":4668:4682   */\n      add\n        /* \"#utility.yul\":4653:4682   */\n      swap1\n      pop\n        /* \"#utility.yul\":4519:4688   */\n      swap3\n      swap2\n      pop\n      pop\n      jump\t// out\n        /* \"#utility.yul\":4694:5001   */\n    tag_105:\n        /* \"#utility.yul\":4762:4763   */\n      0x00\n        /* \"#utility.yul\":4772:4885   */\n    tag_192:\n        /* \"#utility.yul\":4786:4792   */\n      dup4\n        /* \"#utility.yul\":4783:4784   */\n      dup2\n        /* \"#utility.yul\":4780:4793   */\n      lt\n        /* \"#utility.yul\":4772:4885   */\n      iszero\n      tag_194\n      jumpi\n        /* \"#utility.yul\":4871:4872   */\n      dup1\n        /* \"#utility.yul\":4866:4869   */\n      dup3\n        /* \"#utility.yul\":4862:4873   */\n      add\n        /* \"#utility.yul\":4856:4874   */\n      mload\n        /* \"#utility.yul\":4852:4853   */\n      dup2\n        /* \"#utility.yul\":4847:4850   */\n      dup5\n        /* \"#utility.yul\":4843:4854   */\n      add\n        /* \"#utility.yul\":4836:4875   */\n      mstore\n        /* \"#utility.yul\":4808:4810   */\n      0x20\n        /* \"#utility.yul\":4805:4806   */\n      dup2\n        /* \"#utility.yul\":4801:4811   */\n      add\n        /* \"#utility.yul\":4796:4811   */\n      swap1\n      pop\n        /* \"#utility.yul\":4772:4885   */\n      jump(tag_192)\n    tag_194:\n        /* \"#utility.yul\":4903:4909   */\n      dup4\n        /* \"#utility.yul\":4900:4901   */\n      dup2\n        /* \"#utility.yul\":4897:4910   */\n      gt\n        /* \"#utility.yul\":4894:4995   */\n      iszero\n      tag_195\n      jumpi\n        /* \"#utility.yul\":4983:4984   */\n      0x00\n        /* \"#utility.yul\":4974:4980   */\n      dup5\n        /* \"#utility.yul\":4969:4972   */\n      dup5\n        /* \"#utility.yul\":4965:4981   */\n      add\n        /* \"#utility.yul\":4958:4985   */\n      mstore\n        /* \"#utility.yul\":4894:4995   */\n    tag_195:\n        /* \"#utility.yul\":4743:5001   */\n      pop\n        /* \"#utility.yul\":4694:5001   */\n      pop\n      pop\n      pop\n      jump\t// out\n        /* \"#utility.yul\":5007:5371   */\n    tag_106:\n        /* \"#utility.yul\":5095:5098   */\n      0x00\n        /* \"#utility.yul\":5123:5162   */\n      tag_197\n        /* \"#utility.yul\":5156:5161   */\n      dup3\n        /* \"#utility.yul\":5123:5162   */\n      tag_103\n      jump\t// in\n    tag_197:\n        /* \"#utility.yul\":5178:5249   */\n      tag_198\n        /* \"#utility.yul\":5242:5248   */\n      dup2\n        /* \"#utility.yul\":5237:5240   */\n      dup6\n        /* \"#utility.yul\":5178:5249   */\n      tag_104\n      jump\t// in\n    tag_198:\n        /* \"#utility.yul\":5171:5249   */\n      swap4\n      pop\n        /* \"#utility.yul\":5258:5310   */\n      tag_199\n        /* \"#utility.yul\":5303:5309   */\n      dup2\n        /* \"#utility.yul\":5298:5301   */\n      dup6\n        /* \"#utility.yul\":5291:5295   */\n      0x20\n        /* \"#utility.yul\":5284:5289   */\n      dup7\n        /* \"#utility.yul\":5280:5296   */\n      add\n        /* \"#utility.yul\":5258:5310   */\n      tag_105\n      jump\t// in\n    tag_199:\n        /* \"#utility.yul\":5335:5364   */\n      tag_200\n        /* \"#utility.yul\":5357:5363   */\n      dup2\n        /* \"#utility.yul\":5335:5364   */\n      tag_91\n      jump\t// in\n    tag_200:\n        /* \"#utility.yul\":5330:5333   */\n      dup5\n        /* \"#utility.yul\":5326:5365   */\n      add\n        /* \"#utility.yul\":5319:5365   */\n      swap2\n      pop\n        /* \"#utility.yul\":5099:5371   */\n      pop\n        /* \"#utility.yul\":5007:5371   */\n      swap3\n      swap2\n      pop\n      pop\n      jump\t// out\n        /* \"#utility.yul\":5377:5690   */\n    tag_24:\n        /* \"#utility.yul\":5490:5494   */\n      0x00\n        /* \"#utility.yul\":5528:5530   */\n      0x20\n        /* \"#utility.yul\":5517:5526   */\n      dup3\n        /* \"#utility.yul\":5513:5531   */\n      add\n        /* \"#utility.yul\":5505:5531   */\n      swap1\n      pop\n        /* \"#utility.yul\":5577:5586   */\n      dup2\n        /* \"#utility.yul\":5571:5575   */\n      dup2\n        /* \"#utility.yul\":5567:5587   */\n      sub\n        /* \"#utility.yul\":5563:5564   */\n      0x00\n        /* \"#utility.yul\":5552:5561   */\n      dup4\n        /* \"#utility.yul\":5548:5565   */\n      add\n        /* \"#utility.yul\":5541:5588   */\n      mstore\n        /* \"#utility.yul\":5605:5683   */\n      tag_202\n        /* \"#utility.yul\":5678:5682   */\n      dup2\n        /* \"#utility.yul\":5669:5675   */\n      dup5\n        /* \"#utility.yul\":5605:5683   */\n      tag_106\n      jump\t// in\n    tag_202:\n        /* \"#utility.yul\":5597:5683   */\n      swap1\n      pop\n        /* \"#utility.yul\":5377:5690   */\n      swap3\n      swap2\n      pop\n      pop\n      jump\t// out\n        /* \"#utility.yul\":5696:5773   */\n    tag_107:\n        /* \"#utility.yul\":5733:5740   */\n      0x00\n        /* \"#utility.yul\":5762:5767   */\n      dup2\n        /* \"#utility.yul\":5751:5767   */\n      swap1\n      pop\n        /* \"#utility.yul\":5696:5773   */\n      swap2\n      swap1\n      pop\n      jump\t// out\n        /* \"#utility.yul\":5779:5897   */\n    tag_108:\n        /* \"#utility.yul\":5866:5890   */\n      tag_205\n        /* \"#utility.yul\":5884:5889   */\n      dup2\n        /* \"#utility.yul\":5866:5890   */\n      tag_107\n      jump\t// in\n    tag_205:\n        /* \"#utility.yul\":5861:5864   */\n      dup3\n        /* \"#utility.yul\":5854:5891   */\n      mstore\n        /* \"#utility.yul\":5779:5897   */\n      pop\n      pop\n      jump\t// out\n        /* \"#utility.yul\":5903:6125   */\n    tag_28:\n        /* \"#utility.yul\":5996:6000   */\n      0x00\n        /* \"#utility.yul\":6034:6036   */\n      0x20\n        /* \"#utility.yul\":6023:6032   */\n      dup3\n        /* \"#utility.yul\":6019:6037   */\n      add\n        /* \"#utility.yul\":6011:6037   */\n      swap1\n      pop\n        /* \"#utility.yul\":6047:6118   */\n      tag_207\n        /* \"#utility.yul\":6115:6116   */\n      0x00\n        /* \"#utility.yul\":6104:6113   */\n      dup4\n        /* \"#utility.yul\":6100:6117   */\n      add\n        /* \"#utility.yul\":6091:6097   */\n      dup5\n        /* \"#utility.yul\":6047:6118   */\n      tag_108\n      jump\t// in\n    tag_207:\n        /* \"#utility.yul\":5903:6125   */\n      swap3\n      swap2\n      pop\n      pop\n      jump\t// out\n        /* \"#utility.yul\":6131:6221   */\n    tag_109:\n        /* \"#utility.yul\":6165:6172   */\n      0x00\n        /* \"#utility.yul\":6208:6213   */\n      dup2\n        /* \"#utility.yul\":6201:6214   */\n      iszero\n        /* \"#utility.yul\":6194:6215   */\n      iszero\n        /* \"#utility.yul\":6183:6215   */\n      swap1\n      pop\n        /* \"#utility.yul\":6131:6221   */\n      swap2\n      swap1\n      pop\n      jump\t// out\n        /* \"#utility.yul\":6227:6336   */\n    tag_110:\n        /* \"#utility.yul\":6308:6329   */\n      tag_210\n        /* \"#utility.yul\":6323:6328   */\n      dup2\n        /* \"#utility.yul\":6308:6329   */\n      tag_109\n      jump\t// in\n    tag_210:\n        /* \"#utility.yul\":6303:6306   */\n      dup3\n        /* \"#utility.yul\":6296:6330   */\n      mstore\n        /* \"#utility.yul\":6227:6336   */\n      pop\n      pop\n      jump\t// out\n        /* \"#utility.yul\":6342:6552   */\n    tag_33:\n        /* \"#utility.yul\":6429:6433   */\n      0x00\n        /* \"#utility.yul\":6467:6469   */\n      0x20\n        /* \"#utility.yul\":6456:6465   */\n      dup3\n        /* \"#utility.yul\":6452:6470   */\n      add\n        /* \"#utility.yul\":6444:6470   */\n      swap1\n      pop\n        /* \"#utility.yul\":6480:6545   */\n      tag_212\n        /* \"#utility.yul\":6542:6543   */\n      0x00\n        /* \"#utility.yul\":6531:6540   */\n      dup4\n        /* \"#utility.yul\":6527:6544   */\n      add\n        /* \"#utility.yul\":6518:6524   */\n      dup5\n        /* \"#utility.yul\":6480:6545   */\n      tag_110\n      jump\t// in\n    tag_212:\n        /* \"#utility.yul\":6342:6552   */\n      swap3\n      swap2\n      pop\n      pop\n      jump\t// out\n        /* \"#utility.yul\":6558:6706   */\n    tag_111:\n        /* \"#utility.yul\":6660:6671   */\n      0x00\n        /* \"#utility.yul\":6697:6700   */\n      dup2\n        /* \"#utility.yul\":6682:6700   */\n      swap1\n      pop\n        /* \"#utility.yul\":6558:6706   */\n      swap3\n      swap2\n      pop\n      pop\n      jump\t// out\n        /* \"#utility.yul\":6712:7089   */\n    tag_112:\n        /* \"#utility.yul\":6818:6821   */\n      0x00\n        /* \"#utility.yul\":6846:6885   */\n      tag_215\n        /* \"#utility.yul\":6879:6884   */\n      dup3\n        /* \"#utility.yul\":6846:6885   */\n      tag_103\n      jump\t// in\n    tag_215:\n        /* \"#utility.yul\":6901:6990   */\n      tag_216\n        /* \"#utility.yul\":6983:6989   */\n      dup2\n        /* \"#utility.yul\":6978:6981   */\n      dup6\n        /* \"#utility.yul\":6901:6990   */\n      tag_111\n      jump\t// in\n    tag_216:\n        /* \"#utility.yul\":6894:6990   */\n      swap4\n      pop\n        /* \"#utility.yul\":6999:7051   */\n      tag_217\n        /* \"#utility.yul\":7044:7050   */\n      dup2\n        /* \"#utility.yul\":7039:7042   */\n      dup6\n        /* \"#utility.yul\":7032:7036   */\n      0x20\n        /* \"#utility.yul\":7025:7030   */\n      dup7\n        /* \"#utility.yul\":7021:7037   */\n      add\n        /* \"#utility.yul\":6999:7051   */\n      tag_105\n      jump\t// in\n    tag_217:\n        /* \"#utility.yul\":7076:7082   */\n      dup1\n        /* \"#utility.yul\":7071:7074   */\n      dup5\n        /* \"#utility.yul\":7067:7083   */\n      add\n        /* \"#utility.yul\":7060:7083   */\n      swap2\n      pop\n        /* \"#utility.yul\":6822:7089   */\n      pop\n        /* \"#utility.yul\":6712:7089   */\n      swap3\n      swap2\n      pop\n      pop\n      jump\t// out\n        /* \"#utility.yul\":7095:7370   */\n    tag_42:\n        /* \"#utility.yul\":7227:7230   */\n      0x00\n        /* \"#utility.yul\":7249:7344   */\n      tag_219\n        /* \"#utility.yul\":7340:7343   */\n      dup3\n        /* \"#utility.yul\":7331:7337   */\n      dup5\n        /* \"#utility.yul\":7249:7344   */\n      tag_112\n      jump\t// in\n    tag_219:\n        /* \"#utility.yul\":7242:7344   */\n      swap2\n      pop\n        /* \"#utility.yul\":7361:7364   */\n      dup2\n        /* \"#utility.yul\":7354:7364   */\n      swap1\n      pop\n        /* \"#utility.yul\":7095:7370   */\n      swap3\n      swap2\n      pop\n      pop\n      jump\t// out\n        /* \"#utility.yul\":7376:7596   */\n    tag_113:\n        /* \"#utility.yul\":7516:7550   */\n      0x536f6c61206c6120646f63656e746520707565646520706f6e6572206e6f7461\n        /* \"#utility.yul\":7512:7513   */\n      0x00\n        /* \"#utility.yul\":7504:7510   */\n      dup3\n        /* \"#utility.yul\":7500:7514   */\n      add\n        /* \"#utility.yul\":7493:7551   */\n      mstore\n        /* \"#utility.yul\":7585:7588   */\n      0x7300000000000000000000000000000000000000000000000000000000000000\n        /* \"#utility.yul\":7580:7582   */\n      0x20\n        /* \"#utility.yul\":7572:7578   */\n      dup3\n        /* \"#utility.yul\":7568:7583   */\n      add\n        /* \"#utility.yul\":7561:7589   */\n      mstore\n        /* \"#utility.yul\":7376:7596   */\n      pop\n      jump\t// out\n        /* \"#utility.yul\":7602:7968   */\n    tag_114:\n        /* \"#utility.yul\":7744:7747   */\n      0x00\n        /* \"#utility.yul\":7765:7832   */\n      tag_222\n        /* \"#utility.yul\":7829:7831   */\n      0x21\n        /* \"#utility.yul\":7824:7827   */\n      dup4\n        /* \"#utility.yul\":7765:7832   */\n      tag_104\n      jump\t// in\n    tag_222:\n        /* \"#utility.yul\":7758:7832   */\n      swap2\n      pop\n        /* \"#utility.yul\":7841:7934   */\n      tag_223\n        /* \"#utility.yul\":7930:7933   */\n      dup3\n        /* \"#utility.yul\":7841:7934   */\n      tag_113\n      jump\t// in\n    tag_223:\n        /* \"#utility.yul\":7959:7961   */\n      0x40\n        /* \"#utility.yul\":7954:7957   */\n      dup3\n        /* \"#utility.yul\":7950:7962   */\n      add\n        /* \"#utility.yul\":7943:7962   */\n      swap1\n      pop\n        /* \"#utility.yul\":7602:7968   */\n      swap2\n      swap1\n      pop\n      jump\t// out\n        /* \"#utility.yul\":7974:8393   */\n    tag_46:\n        /* \"#utility.yul\":8140:8144   */\n      0x00\n        /* \"#utility.yul\":8178:8180   */\n      0x20\n        /* \"#utility.yul\":8167:8176   */\n      dup3\n        /* \"#utility.yul\":8163:8181   */\n      add\n        /* \"#utility.yul\":8155:8181   */\n      swap1\n      pop\n        /* \"#utility.yul\":8227:8236   */\n      dup2\n        /* \"#utility.yul\":8221:8225   */\n      dup2\n        /* \"#utility.yul\":8217:8237   */\n      sub\n        /* \"#utility.yul\":8213:8214   */\n      0x00\n        /* \"#utility.yul\":8202:8211   */\n      dup4\n        /* \"#utility.yul\":8198:8215   */\n      add\n        /* \"#utility.yul\":8191:8238   */\n      mstore\n        /* \"#utility.yul\":8255:8386   */\n      tag_225\n        /* \"#utility.yul\":8381:8385   */\n      dup2\n        /* \"#utility.yul\":8255:8386   */\n      tag_114\n      jump\t// in\n    tag_225:\n        /* \"#utility.yul\":8247:8386   */\n      swap1\n      pop\n        /* \"#utility.yul\":7974:8393   */\n      swap2\n      swap1\n      pop\n      jump\t// out\n        /* \"#utility.yul\":8399:8579   */\n    tag_115:\n        /* \"#utility.yul\":8447:8524   */\n      0x4e487b7100000000000000000000000000000000000000000000000000000000\n        /* \"#utility.yul\":8444:8445   */\n      0x00\n        /* \"#utility.yul\":8437:8525   */\n      mstore\n        /* \"#utility.yul\":8544:8548   */\n      0x22\n        /* \"#utility.yul\":8541:8542   */\n      0x04\n        /* \"#utility.yul\":8534:8549   */\n      mstore\n        /* \"#utility.yul\":8568:8572   */\n      0x24\n        /* \"#utility.yul\":8565:8566   */\n      0x00\n        /* \"#utility.yul\":8558:8573   */\n      revert\n        /* \"#utility.yul\":8585:8905   */\n    tag_75:\n        /* \"#utility.yul\":8629:8635   */\n      0x00\n        /* \"#utility.yul\":8666:8667   */\n      0x02\n        /* \"#utility.yul\":8660:8664   */\n      dup3\n        /* \"#utility.yul\":8656:8668   */\n      div\n        /* \"#utility.yul\":8646:8668   */\n      swap1\n      pop\n        /* \"#utility.yul\":8713:8714   */\n      0x01\n        /* \"#utility.yul\":8707:8711   */\n      dup3\n        /* \"#utility.yul\":8703:8715   */\n      and\n        /* \"#utility.yul\":8734:8752   */\n      dup1\n        /* \"#utility.yul\":8724:8805   */\n      tag_228\n      jumpi\n        /* \"#utility.yul\":8790:8794   */\n      0x7f\n        /* \"#utility.yul\":8782:8788   */\n      dup3\n        /* \"#utility.yul\":8778:8795   */\n      and\n        /* \"#utility.yul\":8768:8795   */\n      swap2\n      pop\n        /* \"#utility.yul\":8724:8805   */\n    tag_228:\n        /* \"#utility.yul\":8852:8854   */\n      0x20\n        /* \"#utility.yul\":8844:8850   */\n      dup3\n        /* \"#utility.yul\":8841:8855   */\n      lt\n        /* \"#utility.yul\":8821:8839   */\n      dup2\n        /* \"#utility.yul\":8818:8856   */\n      sub\n        /* \"#utility.yul\":8815:8899   */\n      tag_229\n      jumpi\n        /* \"#utility.yul\":8871:8889   */\n      tag_230\n      tag_115\n      jump\t// in\n    tag_230:\n        /* \"#utility.yul\":8815:8899   */\n    tag_229:\n        /* \"#utility.yul\":8636:8905   */\n      pop\n        /* \"#utility.yul\":8585:8905   */\n      swap2\n      swap1\n      pop\n      jump\t// out\n        /* \"#utility.yul\":8911:9052   */\n    tag_116:\n        /* \"#utility.yul\":8960:8964   */\n      0x00\n        /* \"#utility.yul\":8983:8986   */\n      dup2\n        /* \"#utility.yul\":8975:8986   */\n      swap1\n      pop\n        /* \"#utility.yul\":9006:9009   */\n      dup2\n        /* \"#utility.yul\":9003:9004   */\n      0x00\n        /* \"#utility.yul\":8996:9010   */\n      mstore\n        /* \"#utility.yul\":9040:9044   */\n      0x20\n        /* \"#utility.yul\":9037:9038   */\n      0x00\n        /* \"#utility.yul\":9027:9045   */\n      keccak256\n        /* \"#utility.yul\":9019:9045   */\n      swap1\n      pop\n        /* \"#utility.yul\":8911:9052   */\n      swap2\n      swap1\n      pop\n      jump\t// out\n        /* \"#utility.yul\":9058:9151   */\n    tag_117:\n        /* \"#utility.yul\":9095:9101   */\n      0x00\n        /* \"#utility.yul\":9142:9144   */\n      0x20\n        /* \"#utility.yul\":9137:9139   */\n      0x1f\n        /* \"#utility.yul\":9130:9135   */\n      dup4\n        /* \"#utility.yul\":9126:9140   */\n      add\n        /* \"#utility.yul\":9122:9145   */\n      div\n        /* \"#utility.yul\":9112:9145   */\n      swap1\n      pop\n        /* \"#utility.yul\":9058:9151   */\n      swap2\n      swap1\n      pop\n      jump\t// out\n        /* \"#utility.yul\":9157:9264   */\n    tag_118:\n        /* \"#utility.yul\":9201:9209   */\n      0x00\n        /* \"#utility.yul\":9251:9256   */\n      dup3\n        /* \"#utility.yul\":9245:9249   */\n      dup3\n        /* \"#utility.yul\":9241:9257   */\n      shl\n        /* \"#utility.yul\":9220:9257   */\n      swap1\n      pop\n        /* \"#utility.yul\":9157:9264   */\n      swap3\n      swap2\n      pop\n      pop\n      jump\t// out\n        /* \"#utility.yul\":9270:9663   */\n    tag_119:\n        /* \"#utility.yul\":9339:9345   */\n      0x00\n        /* \"#utility.yul\":9389:9390   */\n      0x08\n        /* \"#utility.yul\":9377:9387   */\n      dup4\n        /* \"#utility.yul\":9373:9391   */\n      mul\n        /* \"#utility.yul\":9412:9509   */\n      tag_235\n        /* \"#utility.yul\":9442:9508   */\n      0xffffffffffffffffffffffffffffffffffffffffffffffffffffffffffffffff\n        /* \"#utility.yul\":9431:9440   */\n      dup3\n        /* \"#utility.yul\":9412:9509   */\n      tag_118\n      jump\t// in\n    tag_235:\n        /* \"#utility.yul\":9530:9569   */\n      tag_236\n        /* \"#utility.yul\":9560:9568   */\n      dup7\n        /* \"#utility.yul\":9549:9558   */\n      dup4\n        /* \"#utility.yul\":9530:9569   */\n      tag_118\n      jump\t// in\n    tag_236:\n        /* \"#utility.yul\":9518:9569   */\n      swap6\n      pop\n        /* \"#utility.yul\":9602:9606   */\n      dup1\n        /* \"#utility.yul\":9598:9607   */\n      not\n        /* \"#utility.yul\":9591:9596   */\n      dup5\n        /* \"#utility.yul\":9587:9608   */\n      and\n        /* \"#utility.yul\":9578:9608   */\n      swap4\n      pop\n        /* \"#utility.yul\":9651:9655   */\n      dup1\n        /* \"#utility.yul\":9641:9649   */\n      dup7\n        /* \"#utility.yul\":9637:9656   */\n      and\n        /* \"#utility.yul\":9630:9635   */\n      dup5\n        /* \"#utility.yul\":9627:9657   */\n      or\n        /* \"#utility.yul\":9617:9657   */\n      swap3\n      pop\n        /* \"#utility.yul\":9346:9663   */\n      pop\n      pop\n        /* \"#utility.yul\":9270:9663   */\n      swap4\n      swap3\n      pop\n      pop\n      pop\n      jump\t// out\n        /* \"#utility.yul\":9669:9729   */\n    tag_120:\n        /* \"#utility.yul\":9697:9700   */\n      0x00\n        /* \"#utility.yul\":9718:9723   */\n      dup2\n        /* \"#utility.yul\":9711:9723   */\n      swap1\n      pop\n        /* \"#utility.yul\":9669:9729   */\n      swap2\n      swap1\n      pop\n      jump\t// out\n        /* \"#utility.yul\":9735:9877   */\n    tag_121:\n        /* \"#utility.yul\":9785:9794   */\n      0x00\n        /* \"#utility.yul\":9818:9871   */\n      tag_239\n        /* \"#utility.yul\":9836:9870   */\n      tag_240\n        /* \"#utility.yul\":9845:9869   */\n      tag_241\n        /* \"#utility.yul\":9863:9868   */\n      dup5\n        /* \"#utility.yul\":9845:9869   */\n      tag_107\n      jump\t// in\n    tag_241:\n        /* \"#utility.yul\":9836:9870   */\n      tag_120\n      jump\t// in\n    tag_240:\n        /* \"#utility.yul\":9818:9871   */\n      tag_107\n      jump\t// in\n    tag_239:\n        /* \"#utility.yul\":9805:9871   */\n      swap1\n      pop\n        /* \"#utility.yul\":9735:9877   */\n      swap2\n      swap1\n      pop\n      jump\t// out\n        /* \"#utility.yul\":9883:9958   */\n    tag_122:\n        /* \"#utility.yul\":9926:9929   */\n      0x00\n        /* \"#utility.yul\":9947:9952   */\n      dup2\n        /* \"#utility.yul\":9940:9952   */\n      swap1\n      pop\n        /* \"#utility.yul\":9883:9958   */\n      swap2\n      swap1\n      pop\n      jump\t// out\n        /* \"#utility.yul\":9964:10233   */\n    tag_123:\n        /* \"#utility.yul\":10074:10113   */\n      tag_244\n        /* \"#utility.yul\":10105:10112   */\n      dup4\n        /* \"#utility.yul\":10074:10113   */\n      tag_121\n      jump\t// in\n    tag_244:\n        /* \"#utility.yul\":10135:10226   */\n      tag_245\n        /* \"#utility.yul\":10184:10225   */\n      tag_246\n        /* \"#utility.yul\":10208:10224   */\n      dup3\n        /* \"#utility.yul\":10184:10225   */\n      tag_122\n      jump\t// in\n    tag_246:\n        /* \"#utility.yul\":10176:10182   */\n      dup5\n        /* \"#utility.yul\":10169:10173   */\n      dup5\n        /* \"#utility.yul\":10163:10174   */\n      sload\n        /* \"#utility.yul\":10135:10226   */\n      tag_119\n      jump\t// in\n    tag_245:\n        /* \"#utility.yul\":10129:10133   */\n      dup3\n        /* \"#utility.yul\":10122:10227   */\n      sstore\n        /* \"#utility.yul\":10040:10233   */\n      pop\n        /* \"#utility.yul\":9964:10233   */\n      pop\n      pop\n      pop\n      jump\t// out\n        /* \"#utility.yul\":10239:10312   */\n    tag_124:\n        /* \"#utility.yul\":10284:10287   */\n      0x00\n        /* \"#utility.yul\":10239:10312   */\n      swap1\n      jump\t// out\n        /* \"#utility.yul\":10318:10507   */\n    tag_125:\n        /* \"#utility.yul\":10395:10427   */\n      tag_249\n      tag_124\n      jump\t// in\n    tag_249:\n        /* \"#utility.yul\":10436:10501   */\n      tag_250\n        /* \"#utility.yul\":10494:10500   */\n      dup2\n        /* \"#utility.yul\":10486:10492   */\n      dup5\n        /* \"#utility.yul\":10480:10484   */\n      dup5\n        /* \"#utility.yul\":10436:10501   */\n      tag_123\n      jump\t// in\n    tag_250:\n        /* \"#utility.yul\":10371:10507   */\n      pop\n        /* \"#utility.yul\":10318:10507   */\n      pop\n      pop\n      jump\t// out\n        /* \"#utility.yul\":10513:10699   */\n    tag_126:\n        /* \"#utility.yul\":10573:10693   */\n    tag_252:\n        /* \"#utility.yul\":10590:10593   */\n      dup2\n        /* \"#utility.yul\":10583:10588   */\n      dup2\n        /* \"#utility.yul\":10580:10594   */\n      lt\n        /* \"#utility.yul\":10573:10693   */\n      iszero\n      tag_254\n      jumpi\n        /* \"#utility.yul\":10644:10683   */\n      tag_255\n        /* \"#utility.yul\":10681:10682   */\n      0x00\n        /* \"#utility.yul\":10674:10679   */\n      dup3\n        /* \"#utility.yul\":10644:10683   */\n      tag_125\n      jump\t// in\n    tag_255:\n        /* \"#utility.yul\":10617:10618   */\n      0x01\n        /* \"#utility.yul\":10610:10615   */\n      dup2\n        /* \"#utility.yul\":10606:10619   */\n      add\n        /* \"#utility.yul\":10597:10619   */\n      swap1\n      pop\n        /* \"#utility.yul\":10573:10693   */\n      jump(tag_252)\n    tag_254:\n        /* \"#utility.yul\":10513:10699   */\n      pop\n      pop\n      jump\t// out\n        /* \"#utility.yul\":10705:11248   */\n    tag_127:\n        /* \"#utility.yul\":10806:10808   */\n      0x1f\n        /* \"#utility.yul\":10801:10804   */\n      dup3\n        /* \"#utility.yul\":10798:10809   */\n      gt\n        /* \"#utility.yul\":10795:11241   */\n      iszero\n      tag_257\n      jumpi\n        /* \"#utility.yul\":10840:10878   */\n      tag_258\n        /* \"#utility.yul\":10872:10877   */\n      dup2\n        /* \"#utility.yul\":10840:10878   */\n      tag_116\n      jump\t// in\n    tag_258:\n        /* \"#utility.yul\":10924:10953   */\n      tag_259\n        /* \"#utility.yul\":10942:10952   */\n      dup5\n        /* \"#utility.yul\":10924:10953   */\n      tag_117\n      jump\t// in\n    tag_259:\n        /* \"#utility.yul\":10914:10922   */\n      dup2\n        /* \"#utility.yul\":10910:10954   */\n      add\n        /* \"#utility.yul\":11107:11109   */\n      0x20\n        /* \"#utility.yul\":11095:11105   */\n      dup6\n        /* \"#utility.yul\":11092:11110   */\n      lt\n        /* \"#utility.yul\":11089:11138   */\n      iszero\n      tag_260\n      jumpi\n        /* \"#utility.yul\":11128:11136   */\n      dup2\n        /* \"#utility.yul\":11113:11136   */\n      swap1\n      pop\n        /* \"#utility.yul\":11089:11138   */\n    tag_260:\n        /* \"#utility.yul\":11151:11231   */\n      tag_261\n        /* \"#utility.yul\":11207:11229   */\n      tag_262\n        /* \"#utility.yul\":11225:11228   */\n      dup6\n        /* \"#utility.yul\":11207:11229   */\n      tag_117\n      jump\t// in\n    tag_262:\n        /* \"#utility.yul\":11197:11205   */\n      dup4\n        /* \"#utility.yul\":11193:11230   */\n      add\n        /* \"#utility.yul\":11180:11191   */\n      dup3\n        /* \"#utility.yul\":11151:11231   */\n      tag_126\n      jump\t// in\n    tag_261:\n        /* \"#utility.yul\":10810:11241   */\n      pop\n      pop\n        /* \"#utility.yul\":10795:11241   */\n    tag_257:\n        /* \"#utility.yul\":10705:11248   */\n      pop\n      pop\n      pop\n      jump\t// out\n        /* \"#utility.yul\":11254:11371   */\n    tag_128:\n        /* \"#utility.yul\":11308:11316   */\n      0x00\n        /* \"#utility.yul\":11358:11363   */\n      dup3\n        /* \"#utility.yul\":11352:11356   */\n      dup3\n        /* \"#utility.yul\":11348:11364   */\n      shr\n        /* \"#utility.yul\":11327:11364   */\n      swap1\n      pop\n        /* \"#utility.yul\":11254:11371   */\n      swap3\n      swap2\n      pop\n      pop\n      jump\t// out\n        /* \"#utility.yul\":11377:11546   */\n    tag_129:\n        /* \"#utility.yul\":11421:11427   */\n      0x00\n        /* \"#utility.yul\":11454:11505   */\n      tag_265\n        /* \"#utility.yul\":11502:11503   */\n      0x00\n        /* \"#utility.yul\":11498:11504   */\n      not\n        /* \"#utility.yul\":11490:11495   */\n      dup5\n        /* \"#utility.yul\":11487:11488   */\n      0x08\n        /* \"#utility.yul\":11483:11496   */\n      mul\n        /* \"#utility.yul\":11454:11505   */\n      tag_128\n      jump\t// in\n    tag_265:\n        /* \"#utility.yul\":11450:11506   */\n      not\n        /* \"#utility.yul\":11535:11539   */\n      dup1\n        /* \"#utility.yul\":11529:11533   */\n      dup4\n        /* \"#utility.yul\":11525:11540   */\n      and\n        /* \"#utility.yul\":11515:11540   */\n      swap2\n      pop\n        /* \"#utility.yul\":11428:11546   */\n      pop\n        /* \"#utility.yul\":11377:11546   */\n      swap3\n      swap2\n      pop\n      pop\n      jump\t// out\n        /* \"#utility.yul\":11551:11846   */\n    tag_130:\n        /* \"#utility.yul\":11627:11631   */\n      0x00\n        /* \"#utility.yul\":11773:11802   */\n      tag_267\n        /* \"#utility.yul\":11798:11801   */\n      dup4\n        /* \"#utility.yul\":11792:11796   */\n      dup4\n        /* \"#utility.yul\":11773:11802   */\n      tag_129\n      jump\t// in\n    tag_267:\n        /* \"#utility.yul\":11765:11802   */\n      swap2\n      pop\n        /* \"#utility.yul\":11835:11838   */\n      dup3\n        /* \"#utility.yul\":11832:11833   */\n      0x02\n        /* \"#utility.yul\":11828:11839   */\n      mul\n        /* \"#utility.yul\":11822:11826   */\n      dup3\n        /* \"#utility.yul\":11819:11840   */\n      or\n        /* \"#utility.yul\":11811:11840   */\n      swap1\n      pop\n        /* \"#utility.yul\":11551:11846   */\n      swap3\n      swap2\n      pop\n      pop\n      jump\t// out\n        /* \"#utility.yul\":11851:13246   */\n    tag_50:\n        /* \"#utility.yul\":11968:12005   */\n      tag_269\n        /* \"#utility.yul\":12001:12004   */\n      dup3\n        /* \"#utility.yul\":11968:12005   */\n      tag_103\n      jump\t// in\n    tag_269:\n        /* \"#utility.yul\":12070:12088   */\n      0xffffffffffffffff\n        /* \"#utility.yul\":12062:12068   */\n      dup2\n        /* \"#utility.yul\":12059:12089   */\n      gt\n        /* \"#utility.yul\":12056:12112   */\n      iszero\n      tag_270\n      jumpi\n        /* \"#utility.yul\":12092:12110   */\n      tag_271\n      tag_92\n      jump\t// in\n    tag_271:\n        /* \"#utility.yul\":12056:12112   */\n    tag_270:\n        /* \"#utility.yul\":12136:12174   */\n      tag_272\n        /* \"#utility.yul\":12168:12172   */\n      dup3\n        /* \"#utility.yul\":12162:12173   */\n      sload\n        /* \"#utility.yul\":12136:12174   */\n      tag_75\n      jump\t// in\n    tag_272:\n        /* \"#utility.yul\":12221:12288   */\n      tag_273\n        /* \"#utility.yul\":12281:12287   */\n      dup3\n        /* \"#utility.yul\":12273:12279   */\n      dup3\n        /* \"#utility.yul\":12267:12271   */\n      dup6\n        /* \"#utility.yul\":12221:12288   */\n      tag_127\n      jump\t// in\n    tag_273:\n        /* \"#utility.yul\":12315:12316   */\n      0x00\n        /* \"#utility.yul\":12339:12343   */\n      0x20\n        /* \"#utility.yul\":12326:12343   */\n      swap1\n      pop\n        /* \"#utility.yul\":12371:12373   */\n      0x1f\n        /* \"#utility.yul\":12363:12369   */\n      dup4\n        /* \"#utility.yul\":12360:12374   */\n      gt\n        /* \"#utility.yul\":12388:12389   */\n      0x01\n        /* \"#utility.yul\":12383:13001   */\n      dup2\n      eq\n      tag_275\n      jumpi\n        /* \"#utility.yul\":13045:13046   */\n      0x00\n        /* \"#utility.yul\":13062:13068   */\n      dup5\n        /* \"#utility.yul\":13059:13136   */\n      iszero\n      tag_276\n      jumpi\n        /* \"#utility.yul\":13111:13120   */\n      dup3\n        /* \"#utility.yul\":13106:13109   */\n      dup8\n        /* \"#utility.yul\":13102:13121   */\n      add\n        /* \"#utility.yul\":13096:13122   */\n      mload\n        /* \"#utility.yul\":13087:13122   */\n      swap1\n      pop\n        /* \"#utility.yul\":13059:13136   */\n    tag_276:\n        /* \"#utility.yul\":13162:13229   */\n      tag_277\n        /* \"#utility.yul\":13222:13228   */\n      dup6\n        /* \"#utility.yul\":13215:13220   */\n      dup3\n        /* \"#utility.yul\":13162:13229   */\n      tag_130\n      jump\t// in\n    tag_277:\n        /* \"#utility.yul\":13156:13160   */\n      dup7\n        /* \"#utility.yul\":13149:13230   */\n      sstore\n        /* \"#utility.yul\":13018:13240   */\n      pop\n        /* \"#utility.yul\":12353:13240   */\n      jump(tag_274)\n        /* \"#utility.yul\":12383:13001   */\n    tag_275:\n        /* \"#utility.yul\":12435:12439   */\n      0x1f\n        /* \"#utility.yul\":12431:12440   */\n      not\n        /* \"#utility.yul\":12423:12429   */\n      dup5\n        /* \"#utility.yul\":12419:12441   */\n      and\n        /* \"#utility.yul\":12469:12506   */\n      tag_278\n        /* \"#utility.yul\":12501:12505   */\n      dup7\n        /* \"#utility.yul\":12469:12506   */\n      tag_116\n      jump\t// in\n    tag_278:\n        /* \"#utility.yul\":12528:12529   */\n      0x00\n        /* \"#utility.yul\":12542:12750   */\n    tag_279:\n        /* \"#utility.yul\":12556:12563   */\n      dup3\n        /* \"#utility.yul\":12553:12554   */\n      dup2\n        /* \"#utility.yul\":12550:12564   */\n      lt\n        /* \"#utility.yul\":12542:12750   */\n      iszero\n      tag_281\n      jumpi\n        /* \"#utility.yul\":12635:12644   */\n      dup5\n        /* \"#utility.yul\":12630:12633   */\n      dup10\n        /* \"#utility.yul\":12626:12645   */\n      add\n        /* \"#utility.yul\":12620:12646   */\n      mload\n        /* \"#utility.yul\":12612:12618   */\n      dup3\n        /* \"#utility.yul\":12605:12647   */\n      sstore\n        /* \"#utility.yul\":12686:12687   */\n      0x01\n        /* \"#utility.yul\":12678:12684   */\n      dup3\n        /* \"#utility.yul\":12674:12688   */\n      add\n        /* \"#utility.yul\":12664:12688   */\n      swap2\n      pop\n        /* \"#utility.yul\":12733:12735   */\n      0x20\n        /* \"#utility.yul\":12722:12731   */\n      dup6\n        /* \"#utility.yul\":12718:12736   */\n      add\n        /* \"#utility.yul\":12705:12736   */\n      swap5\n      pop\n        /* \"#utility.yul\":12579:12583   */\n      0x20\n        /* \"#utility.yul\":12576:12577   */\n      dup2\n        /* \"#utility.yul\":12572:12584   */\n      add\n        /* \"#utility.yul\":12567:12584   */\n      swap1\n      pop\n        /* \"#utility.yul\":12542:12750   */\n      jump(tag_279)\n    tag_281:\n        /* \"#utility.yul\":12778:12784   */\n      dup7\n        /* \"#utility.yul\":12769:12776   */\n      dup4\n        /* \"#utility.yul\":12766:12785   */\n      lt\n        /* \"#utility.yul\":12763:12942   */\n      iszero\n      tag_282\n      jumpi\n        /* \"#utility.yul\":12836:12845   */\n      dup5\n        /* \"#utility.yul\":12831:12834   */\n      dup10\n        /* \"#utility.yul\":12827:12846   */\n      add\n        /* \"#utility.yul\":12821:12847   */\n      mload\n        /* \"#utility.yul\":12879:12927   */\n      tag_283\n        /* \"#utility.yul\":12921:12925   */\n      0x1f\n        /* \"#utility.yul\":12913:12919   */\n      dup10\n        /* \"#utility.yul\":12909:12926   */\n      and\n        /* \"#utility.yul\":12898:12907   */\n      dup3\n        /* \"#utility.yul\":12879:12927   */\n      tag_129\n      jump\t// in\n    tag_283:\n        /* \"#utility.yul\":12871:12877   */\n      dup4\n        /* \"#utility.yul\":12864:12928   */\n      sstore\n        /* \"#utility.yul\":12786:12942   */\n      pop\n        /* \"#utility.yul\":12763:12942   */\n    tag_282:\n        /* \"#utility.yul\":12988:12989   */\n      0x01\n        /* \"#utility.yul\":12984:12985   */\n      0x02\n        /* \"#utility.yul\":12976:12982   */\n      dup9\n        /* \"#utility.yul\":12972:12986   */\n      mul\n        /* \"#utility.yul\":12968:12990   */\n      add\n        /* \"#utility.yul\":12962:12966   */\n      dup9\n        /* \"#utility.yul\":12955:12991   */\n      sstore\n        /* \"#utility.yul\":12390:13001   */\n      pop\n      pop\n      pop\n        /* \"#utility.yul\":12353:13240   */\n    tag_274:\n      pop\n        /* \"#utility.yul\":11943:13246   */\n      pop\n      pop\n      pop\n        /* \"#utility.yul\":11851:13246   */\n      pop\n      pop\n      jump\t// out\n        /* \"#utility.yul\":13276:14150   */\n    tag_131:\n        /* \"#utility.yul\":13379:13382   */\n      0x00\n        /* \"#utility.yul\":13416:13421   */\n      dup2\n        /* \"#utility.yul\":13410:13422   */\n      sload\n        /* \"#utility.yul\":13445:13481   */\n      tag_285\n        /* \"#utility.yul\":13471:13480   */\n      dup2\n        /* \"#utility.yul\":13445:13481   */\n      tag_75\n      jump\t// in\n    tag_285:\n        /* \"#utility.yul\":13497:13586   */\n      tag_286\n        /* \"#utility.yul\":13579:13585   */\n      dup2\n        /* \"#utility.yul\":13574:13577   */\n      dup7\n        /* \"#utility.yul\":13497:13586   */\n      tag_111\n      jump\t// in\n    tag_286:\n        /* \"#utility.yul\":13490:13586   */\n      swap5\n      pop\n        /* \"#utility.yul\":13617:13618   */\n      0x01\n        /* \"#utility.yul\":13606:13615   */\n      dup3\n        /* \"#utility.yul\":13602:13619   */\n      and\n        /* \"#utility.yul\":13633:13634   */\n      0x00\n        /* \"#utility.yul\":13628:13794   */\n      dup2\n      eq\n      tag_288\n      jumpi\n        /* \"#utility.yul\":13808:13809   */\n      0x01\n        /* \"#utility.yul\":13803:14144   */\n      dup2\n      eq\n      tag_289\n      jumpi\n        /* \"#utility.yul\":13595:14144   */\n      jump(tag_287)\n        /* \"#utility.yul\":13628:13794   */\n    tag_288:\n        /* \"#utility.yul\":13712:13716   */\n      0xff\n        /* \"#utility.yul\":13708:13717   */\n      not\n        /* \"#utility.yul\":13697:13706   */\n      dup4\n        /* \"#utility.yul\":13693:13718   */\n      and\n        /* \"#utility.yul\":13688:13691   */\n      dup7\n        /* \"#utility.yul\":13681:13719   */\n      mstore\n        /* \"#utility.yul\":13774:13780   */\n      dup2\n        /* \"#utility.yul\":13767:13781   */\n      iszero\n        /* \"#utility.yul\":13760:13782   */\n      iszero\n        /* \"#utility.yul\":13752:13758   */\n      dup3\n        /* \"#utility.yul\":13748:13783   */\n      mul\n        /* \"#utility.yul\":13743:13746   */\n      dup7\n        /* \"#utility.yul\":13739:13784   */\n      add\n        /* \"#utility.yul\":13732:13784   */\n      swap4\n      pop\n        /* \"#utility.yul\":13628:13794   */\n      jump(tag_287)\n        /* \"#utility.yul\":13803:14144   */\n    tag_289:\n        /* \"#utility.yul\":13870:13908   */\n      tag_290\n        /* \"#utility.yul\":13902:13907   */\n      dup6\n        /* \"#utility.yul\":13870:13908   */\n      tag_116\n      jump\t// in\n    tag_290:\n        /* \"#utility.yul\":13930:13931   */\n      0x00\n        /* \"#utility.yul\":13944:14098   */\n    tag_291:\n        /* \"#utility.yul\":13958:13964   */\n      dup4\n        /* \"#utility.yul\":13955:13956   */\n      dup2\n        /* \"#utility.yul\":13952:13965   */\n      lt\n        /* \"#utility.yul\":13944:14098   */\n      iszero\n      tag_293\n      jumpi\n        /* \"#utility.yul\":14032:14039   */\n      dup2\n        /* \"#utility.yul\":14026:14040   */\n      sload\n        /* \"#utility.yul\":14022:14023   */\n      dup2\n        /* \"#utility.yul\":14017:14020   */\n      dup10\n        /* \"#utility.yul\":14013:14024   */\n      add\n        /* \"#utility.yul\":14006:14041   */\n      mstore\n        /* \"#utility.yul\":14082:14083   */\n      0x01\n        /* \"#utility.yul\":14073:14080   */\n      dup3\n        /* \"#utility.yul\":14069:14084   */\n      add\n        /* \"#utility.yul\":14058:14084   */\n      swap2\n      pop\n        /* \"#utility.yul\":13980:13984   */\n      0x20\n        /* \"#utility.yul\":13977:13978   */\n      dup2\n        /* \"#utility.yul\":13973:13985   */\n      add\n        /* \"#utility.yul\":13968:13985   */\n      swap1\n      pop\n        /* \"#utility.yul\":13944:14098   */\n      jump(tag_291)\n    tag_293:\n        /* \"#utility.yul\":14127:14133   */\n      dup4\n        /* \"#utility.yul\":14122:14125   */\n      dup9\n        /* \"#utility.yul\":14118:14134   */\n      add\n        /* \"#utility.yul\":14111:14134   */\n      swap6\n      pop\n        /* \"#utility.yul\":13810:14144   */\n      pop\n      pop\n        /* \"#utility.yul\":13595:14144   */\n    tag_287:\n      pop\n        /* \"#utility.yul\":13383:14150   */\n      pop\n      pop\n        /* \"#utility.yul\":13276:14150   */\n      swap3\n      swap2\n      pop\n      pop\n      jump\t// out\n        /* \"#utility.yul\":14156:14307   */\n    tag_132:\n        /* \"#utility.yul\":14296:14299   */\n      0x2000000000000000000000000000000000000000000000000000000000000000\n        /* \"#utility.yul\":14292:14293   */\n      0x00\n        /* \"#utility.yul\":14284:14290   */\n      dup3\n        /* \"#utility.yul\":14280:14294   */\n      add\n        /* \"#utility.yul\":14273:14300   */\n      mstore\n        /* \"#utility.yul\":14156:14307   */\n      pop\n      jump\t// out\n        /* \"#utility.yul\":14313:14713   */\n    tag_133:\n        /* \"#utility.yul\":14473:14476   */\n      0x00\n        /* \"#utility.yul\":14494:14578   */\n      tag_296\n        /* \"#utility.yul\":14576:14577   */\n      0x01\n        /* \"#utility.yul\":14571:14574   */\n      dup4\n        /* \"#utility.yul\":14494:14578   */\n      tag_111\n      jump\t// in\n    tag_296:\n        /* \"#utility.yul\":14487:14578   */\n      swap2\n      pop\n        /* \"#utility.yul\":14587:14680   */\n      tag_297\n        /* \"#utility.yul\":14676:14679   */\n      dup3\n        /* \"#utility.yul\":14587:14680   */\n      tag_132\n      jump\t// in\n    tag_297:\n        /* \"#utility.yul\":14705:14706   */\n      0x01\n        /* \"#utility.yul\":14700:14703   */\n      dup3\n        /* \"#utility.yul\":14696:14707   */\n      add\n        /* \"#utility.yul\":14689:14707   */\n      swap1\n      pop\n        /* \"#utility.yul\":14313:14713   */\n      swap2\n      swap1\n      pop\n      jump\t// out\n        /* \"#utility.yul\":14719:15408   */\n    tag_53:\n        /* \"#utility.yul\":14994:14997   */\n      0x00\n        /* \"#utility.yul\":15016:15108   */\n      tag_299\n        /* \"#utility.yul\":15104:15107   */\n      dup3\n        /* \"#utility.yul\":15095:15101   */\n      dup6\n        /* \"#utility.yul\":15016:15108   */\n      tag_131\n      jump\t// in\n    tag_299:\n        /* \"#utility.yul\":15009:15108   */\n      swap2\n      pop\n        /* \"#utility.yul\":15125:15273   */\n      tag_300\n        /* \"#utility.yul\":15269:15272   */\n      dup3\n        /* \"#utility.yul\":15125:15273   */\n      tag_133\n      jump\t// in\n    tag_300:\n        /* \"#utility.yul\":15118:15273   */\n      swap2\n      pop\n        /* \"#utility.yul\":15290:15382   */\n      tag_301\n        /* \"#utility.yul\":15378:15381   */\n      dup3\n        /* \"#utility.yul\":15369:15375   */\n      dup5\n        /* \"#utility.yul\":15290:15382   */\n      tag_131\n      jump\t// in\n    tag_301:\n        /* \"#utility.yul\":15283:15382   */\n      swap2\n      pop\n        /* \"#utility.yul\":15399:15402   */\n      dup2\n        /* \"#utility.yul\":15392:15402   */\n      swap1\n      pop\n        /* \"#utility.yul\":14719:15408   */\n      swap4\n      swap3\n      pop\n      pop\n      pop\n      jump\t// out\n        /* \"#utility.yul\":15414:15594   */\n    tag_60:\n        /* \"#utility.yul\":15462:15539   */\n      0x4e487b7100000000000000000000000000000000000000000000000000000000\n        /* \"#utility.yul\":15459:15460   */\n      0x00\n        /* \"#utility.yul\":15452:15540   */\n      mstore\n        /* \"#utility.yul\":15559:15563   */\n      0x32\n        /* \"#utility.yul\":15556:15557   */\n      0x04\n        /* \"#utility.yul\":15549:15564   */\n      mstore\n        /* \"#utility.yul\":15583:15587   */\n      0x24\n        /* \"#utility.yul\":15580:15581   */\n      0x00\n        /* \"#utility.yul\":15573:15588   */\n      revert\n        /* \"#utility.yul\":15600:15869   */\n    tag_63:\n        /* \"#utility.yul\":15729:15732   */\n      0x00\n        /* \"#utility.yul\":15751:15843   */\n      tag_304\n        /* \"#utility.yul\":15839:15842   */\n      dup3\n        /* \"#utility.yul\":15830:15836   */\n      dup5\n        /* \"#utility.yul\":15751:15843   */\n      tag_131\n      jump\t// in\n    tag_304:\n        /* \"#utility.yul\":15744:15843   */\n      swap2\n      pop\n        /* \"#utility.yul\":15860:15863   */\n      dup2\n        /* \"#utility.yul\":15853:15863   */\n      swap1\n      pop\n        /* \"#utility.yul\":15600:15869   */\n      swap3\n      swap2\n      pop\n      pop\n      jump\t// out\n        /* \"#utility.yul\":15875:16055   */\n    tag_134:\n        /* \"#utility.yul\":15923:16000   */\n      0x4e487b7100000000000000000000000000000000000000000000000000000000\n        /* \"#utility.yul\":15920:15921   */\n      0x00\n        /* \"#utility.yul\":15913:16001   */\n      mstore\n        /* \"#utility.yul\":16020:16024   */\n      0x11\n        /* \"#utility.yul\":16017:16018   */\n      0x04\n        /* \"#utility.yul\":16010:16025   */\n      mstore\n        /* \"#utility.yul\":16044:16048   */\n      0x24\n        /* \"#utility.yul\":16041:16042   */\n      0x00\n        /* \"#utility.yul\":16034:16049   */\n      revert\n        /* \"#utility.yul\":16061:16366   */\n    tag_65:\n        /* \"#utility.yul\":16101:16104   */\n      0x00\n        /* \"#utility.yul\":16120:16140   */\n      tag_307\n        /* \"#utility.yul\":16138:16139   */\n      dup3\n        /* \"#utility.yul\":16120:16140   */\n      tag_107\n      jump\t// in\n    tag_307:\n        /* \"#utility.yul\":16115:16140   */\n      swap2\n      pop\n        /* \"#utility.yul\":16154:16174   */\n      tag_308\n        /* \"#utility.yul\":16172:16173   */\n      dup4\n        /* \"#utility.yul\":16154:16174   */\n      tag_107\n      jump\t// in\n    tag_308:\n        /* \"#utility.yul\":16149:16174   */\n      swap3\n      pop\n        /* \"#utility.yul\":16308:16309   */\n      dup3\n        /* \"#utility.yul\":16240:16306   */\n      0xffffffffffffffffffffffffffffffffffffffffffffffffffffffffffffffff\n        /* \"#utility.yul\":16236:16310   */\n      sub\n        /* \"#utility.yul\":16233:16234   */\n      dup3\n        /* \"#utility.yul\":16230:16311   */\n      gt\n        /* \"#utility.yul\":16227:16334   */\n      iszero\n      tag_309\n      jumpi\n        /* \"#utility.yul\":16314:16332   */\n      tag_310\n      tag_134\n      jump\t// in\n    tag_310:\n        /* \"#utility.yul\":16227:16334   */\n    tag_309:\n        /* \"#utility.yul\":16358:16359   */\n      dup3\n        /* \"#utility.yul\":16355:16356   */\n      dup3\n        /* \"#utility.yul\":16351:16360   */\n      add\n        /* \"#utility.yul\":16344:16360   */\n      swap1\n      pop\n        /* \"#utility.yul\":16061:16366   */\n      swap3\n      swap2\n      pop\n      pop\n      jump\t// out\n        /* \"#utility.yul\":16372:16539   */\n    tag_67:\n        /* \"#utility.yul\":16409:16412   */\n      0x00\n        /* \"#utility.yul\":16432:16454   */\n      tag_312\n        /* \"#utility.yul\":16448:16453   */\n      dup3\n        /* \"#utility.yul\":16432:16454   */\n      tag_99\n      jump\t// in\n    tag_312:\n        /* \"#utility.yul\":16423:16454   */\n      swap2\n      pop\n        /* \"#utility.yul\":16476:16480   */\n      0xff\n        /* \"#utility.yul\":16469:16474   */\n      dup3\n        /* \"#utility.yul\":16466:16481   */\n      sub\n        /* \"#utility.yul\":16463:16504   */\n      tag_313\n      jumpi\n        /* \"#utility.yul\":16484:16502   */\n      tag_314\n      tag_134\n      jump\t// in\n    tag_314:\n        /* \"#utility.yul\":16463:16504   */\n    tag_313:\n        /* \"#utility.yul\":16531:16532   */\n      0x01\n        /* \"#utility.yul\":16524:16529   */\n      dup3\n        /* \"#utility.yul\":16520:16533   */\n      add\n        /* \"#utility.yul\":16513:16533   */\n      swap1\n      pop\n        /* \"#utility.yul\":16372:16539   */\n      swap2\n      swap1\n      pop\n      jump\t// out\n        /* \"#utility.yul\":16545:16725   */\n    tag_135:\n        /* \"#utility.yul\":16593:16670   */\n      0x4e487b7100000000000000000000000000000000000000000000000000000000\n        /* \"#utility.yul\":16590:16591   */\n      0x00\n        /* \"#utility.yul\":16583:16671   */\n      mstore\n        /* \"#utility.yul\":16690:16694   */\n      0x12\n        /* \"#utility.yul\":16687:16688   */\n      0x04\n        /* \"#utility.yul\":16680:16695   */\n      mstore\n        /* \"#utility.yul\":16714:16718   */\n      0x24\n        /* \"#utility.yul\":16711:16712   */\n      0x00\n        /* \"#utility.yul\":16704:16719   */\n      revert\n        /* \"#utility.yul\":16731:16916   */\n    tag_69:\n        /* \"#utility.yul\":16771:16772   */\n      0x00\n        /* \"#utility.yul\":16788:16808   */\n      tag_317\n        /* \"#utility.yul\":16806:16807   */\n      dup3\n        /* \"#utility.yul\":16788:16808   */\n      tag_107\n      jump\t// in\n    tag_317:\n        /* \"#utility.yul\":16783:16808   */\n      swap2\n      pop\n        /* \"#utility.yul\":16822:16842   */\n      tag_318\n        /* \"#utility.yul\":16840:16841   */\n      dup4\n        /* \"#utility.yul\":16822:16842   */\n      tag_107\n      jump\t// in\n    tag_318:\n        /* \"#utility.yul\":16817:16842   */\n      swap3\n      pop\n        /* \"#utility.yul\":16861:16862   */\n      dup3\n        /* \"#utility.yul\":16851:16886   */\n      tag_319\n      jumpi\n        /* \"#utility.yul\":16866:16884   */\n      tag_320\n      tag_135\n      jump\t// in\n    tag_320:\n        /* \"#utility.yul\":16851:16886   */\n    tag_319:\n        /* \"#utility.yul\":16908:16909   */\n      dup3\n        /* \"#utility.yul\":16905:16906   */\n      dup3\n        /* \"#utility.yul\":16901:16910   */\n      div\n        /* \"#utility.yul\":16896:16910   */\n      swap1\n      pop\n        /* \"#utility.yul\":16731:16916   */\n      swap3\n      swap2\n      pop\n      pop\n      jump\t// out\n\n    auxdata: 0xa2646970667358221220d0ff9b1fd5a95bc62749f7b1d23de349e0627fd0124fd71e03092f4cb6ce5cf564736f6c634300080f0033\n}\n",
				"bytecode": {
					"linkReferences": {},
					"object": "60806040523480156200001157600080fd5b50604051620013ad380380620013ad8339818101604052810190620000379190620003dd565b600080546200004690620004c5565b80601f01602080910402602001604051908101604052809291908181526020018280546200007490620004c5565b8015620000c55780601f106200009957610100808354040283529160200191620000c5565b820191906000526020600020905b815481529060010190602001808311620000a757829003601f168201915b5050505050925060018054620000db90620004c5565b80601f01602080910402602001604051908101604052809291908181526020018280546200010990620004c5565b80156200015a5780601f106200012e576101008083540402835291602001916200015a565b820191906000526020600020905b8154815290600101906020018083116200013c57829003601f168201915b50505050509150600380546200017090620004c5565b80601f01602080910402602001604051908101604052809291908181526020018280546200019e90620004c5565b8015620001ef5780601f10620001c357610100808354040283529160200191620001ef565b820191906000526020600020905b815481529060010190602001808311620001d157829003601f168201915b5050505050905033600460006101000a81548173ffffffffffffffffffffffffffffffffffffffff021916908373ffffffffffffffffffffffffffffffffffffffff160217905550505050620004fa565b6000604051905090565b600080fd5b600080fd5b600080fd5b600080fd5b6000601f19601f8301169050919050565b7f4e487b7100000000000000000000000000000000000000000000000000000000600052604160045260246000fd5b620002a9826200025e565b810181811067ffffffffffffffff82111715620002cb57620002ca6200026f565b5b80604052505050565b6000620002e062000240565b9050620002ee82826200029e565b919050565b600067ffffffffffffffff8211156200031157620003106200026f565b5b6200031c826200025e565b9050602081019050919050565b60005b83811015620003495780820151818401526020810190506200032c565b8381111562000359576000848401525b50505050565b6000620003766200037084620002f3565b620002d4565b90508281526020810184848401111562000395576200039462000259565b5b620003a284828562000329565b509392505050565b600082601f830112620003c257620003c162000254565b5b8151620003d48482602086016200035f565b91505092915050565b600080600060608486031215620003f957620003f86200024a565b5b600084015167ffffffffffffffff8111156200041a57620004196200024f565b5b6200042886828701620003aa565b935050602084015167ffffffffffffffff8111156200044c576200044b6200024f565b5b6200045a86828701620003aa565b925050604084015167ffffffffffffffff8111156200047e576200047d6200024f565b5b6200048c86828701620003aa565b9150509250925092565b7f4e487b7100000000000000000000000000000000000000000000000000000000600052602260045260246000fd5b60006002820490506001821680620004de57607f821691505b602082108103620004f457620004f362000496565b5b50919050565b610ea3806200050a6000396000f3fe608060405234801561001057600080fd5b506004361061007d5760003560e01c80637b2e08291161005b5780637b2e0829146100ec578063811d86c81461010a578063972a85761461013a578063deafcc41146101585761007d565b806303b0779c146100825780632bd228f9146100b25780637346a9fa146100ce575b600080fd5b61009c6004803603810190610097919061063c565b610176565b6040516100a991906106a1565b60405180910390f35b6100cc60048036038101906100c791906106e8565b6101ab565b005b6100d66102ab565b6040516100e391906107cc565b60405180910390f35b6100f46102d6565b6040516101019190610807565b60405180910390f35b610124600480360381019061011f919061063c565b610373565b604051610131919061083d565b60405180910390f35b6101426103be565b60405161014f91906107cc565b60405180910390f35b610160610450565b60405161016d91906107cc565b60405180910390f35b60006005826040516101889190610894565b908152602001604051809103902060009054906101000a900460ff169050919050565b600460009054906101000a900473ffffffffffffffffffffffffffffffffffffffff1673ffffffffffffffffffffffffffffffffffffffff163373ffffffffffffffffffffffffffffffffffffffff161461023b576040517f08c379a00000000000000000000000000000000000000000000000000000000081526004016102329061091d565b60405180910390fd5b8160058260405161024c9190610894565b908152602001604051809103902060006101000a81548160ff021916908360ff1602179055506006819080600181540180825580915050600190039060005260206000200160009091909190915090816102a69190610b49565b505050565b6060600060016040516020016102c2929190610cea565b604051602081830303815290604052905090565b60008060068054905090506000805b828160ff16101561035f57600560068260ff168154811061030957610308610d19565b5b906000526020600020016040516103209190610d48565b908152602001604051809103902060009054906101000a900460ff1660ff168261034a9190610d8e565b9150808061035790610de4565b9150506102e5565b50818161036c9190610e3c565b9250505090565b6000603c6005836040516103879190610894565b908152602001604051809103902060009054906101000a900460ff1660ff16106103b457600190506103b9565b600090505b919050565b6060600180546103cd9061096c565b80601f01602080910402602001604051908101604052809291908181526020018280546103f99061096c565b80156104465780601f1061041b57610100808354040283529160200191610446565b820191906000526020600020905b81548152906001019060200180831161042957829003601f168201915b5050505050905090565b60606003805461045f9061096c565b80601f016020809104026020016040519081016040528092919081815260200182805461048b9061096c565b80156104d85780601f106104ad576101008083540402835291602001916104d8565b820191906000526020600020905b8154815290600101906020018083116104bb57829003601f168201915b5050505050905090565b6000604051905090565b600080fd5b600080fd5b600080fd5b600080fd5b6000601f19601f8301169050919050565b7f4e487b7100000000000000000000000000000000000000000000000000000000600052604160045260246000fd5b61054982610500565b810181811067ffffffffffffffff8211171561056857610567610511565b5b80604052505050565b600061057b6104e2565b90506105878282610540565b919050565b600067ffffffffffffffff8211156105a7576105a6610511565b5b6105b082610500565b9050602081019050919050565b82818337600083830152505050565b60006105df6105da8461058c565b610571565b9050828152602081018484840111156105fb576105fa6104fb565b5b6106068482856105bd565b509392505050565b600082601f830112610623576106226104f6565b5b81356106338482602086016105cc565b91505092915050565b600060208284031215610652576106516104ec565b5b600082013567ffffffffffffffff8111156106705761066f6104f1565b5b61067c8482850161060e565b91505092915050565b600060ff82169050919050565b61069b81610685565b82525050565b60006020820190506106b66000830184610692565b92915050565b6106c581610685565b81146106d057600080fd5b50565b6000813590506106e2816106bc565b92915050565b600080604083850312156106ff576106fe6104ec565b5b600061070d858286016106d3565b925050602083013567ffffffffffffffff81111561072e5761072d6104f1565b5b61073a8582860161060e565b9150509250929050565b600081519050919050565b600082825260208201905092915050565b60005b8381101561077e578082015181840152602081019050610763565b8381111561078d576000848401525b50505050565b600061079e82610744565b6107a8818561074f565b93506107b8818560208601610760565b6107c181610500565b840191505092915050565b600060208201905081810360008301526107e68184610793565b905092915050565b6000819050919050565b610801816107ee565b82525050565b600060208201905061081c60008301846107f8565b92915050565b60008115159050919050565b61083781610822565b82525050565b6000602082019050610852600083018461082e565b92915050565b600081905092915050565b600061086e82610744565b6108788185610858565b9350610888818560208601610760565b80840191505092915050565b60006108a08284610863565b915081905092915050565b7f536f6c61206c6120646f63656e746520707565646520706f6e6572206e6f746160008201527f7300000000000000000000000000000000000000000000000000000000000000602082015250565b600061090760218361074f565b9150610912826108ab565b604082019050919050565b60006020820190508181036000830152610936816108fa565b9050919050565b7f4e487b7100000000000000000000000000000000000000000000000000000000600052602260045260246000fd5b6000600282049050600182168061098457607f821691505b6020821081036109975761099661093d565b5b50919050565b60008190508160005260206000209050919050565b60006020601f8301049050919050565b600082821b905092915050565b6000600883026109ff7fffffffffffffffffffffffffffffffffffffffffffffffffffffffffffffffff826109c2565b610a0986836109c2565b95508019841693508086168417925050509392505050565b6000819050919050565b6000610a46610a41610a3c846107ee565b610a21565b6107ee565b9050919050565b6000819050919050565b610a6083610a2b565b610a74610a6c82610a4d565b8484546109cf565b825550505050565b600090565b610a89610a7c565b610a94818484610a57565b505050565b5b81811015610ab857610aad600082610a81565b600181019050610a9a565b5050565b601f821115610afd57610ace8161099d565b610ad7846109b2565b81016020851015610ae6578190505b610afa610af2856109b2565b830182610a99565b50505b505050565b600082821c905092915050565b6000610b2060001984600802610b02565b1980831691505092915050565b6000610b398383610b0f565b9150826002028217905092915050565b610b5282610744565b67ffffffffffffffff811115610b6b57610b6a610511565b5b610b75825461096c565b610b80828285610abc565b600060209050601f831160018114610bb35760008415610ba1578287015190505b610bab8582610b2d565b865550610c13565b601f198416610bc18661099d565b60005b82811015610be957848901518255600182019150602085019450602081019050610bc4565b86831015610c065784890151610c02601f891682610b0f565b8355505b6001600288020188555050505b505050505050565b60008154610c288161096c565b610c328186610858565b94506001821660008114610c4d5760018114610c6257610c95565b60ff1983168652811515820286019350610c95565b610c6b8561099d565b60005b83811015610c8d57815481890152600182019150602081019050610c6e565b838801955050505b50505092915050565b7f2000000000000000000000000000000000000000000000000000000000000000600082015250565b6000610cd4600183610858565b9150610cdf82610c9e565b600182019050919050565b6000610cf68285610c1b565b9150610d0182610cc7565b9150610d0d8284610c1b565b91508190509392505050565b7f4e487b7100000000000000000000000000000000000000000000000000000000600052603260045260246000fd5b6000610d548284610c1b565b915081905092915050565b7f4e487b7100000000000000000000000000000000000000000000000000000000600052601160045260246000fd5b6000610d99826107ee565b9150610da4836107ee565b9250827fffffffffffffffffffffffffffffffffffffffffffffffffffffffffffffffff03821115610dd957610dd8610d5f565b5b828201905092915050565b6000610def82610685565b915060ff8203610e0257610e01610d5f565b5b600182019050919050565b7f4e487b7100000000000000000000000000000000000000000000000000000000600052601260045260246000fd5b6000610e47826107ee565b9150610e52836107ee565b925082610e6257610e61610e0d565b5b82820490509291505056fea2646970667358221220d0ff9b1fd5a95bc62749f7b1d23de349e0627fd0124fd71e03092f4cb6ce5cf564736f6c634300080f0033",
					"opcodes": "PUSH1 0x80 PUSH1 0x40 MSTORE CALLVALUE DUP1 ISZERO PUSH3 0x11 JUMPI PUSH1 0x0 DUP1 REVERT JUMPDEST POP PUSH1 0x40 MLOAD PUSH3 0x13AD CODESIZE SUB DUP1 PUSH3 0x13AD DUP4 CODECOPY DUP2 DUP2 ADD PUSH1 0x40 MSTORE DUP2 ADD SWAP1 PUSH3 0x37 SWAP2 SWAP1 PUSH3 0x3DD JUMP JUMPDEST PUSH1 0x0 DUP1 SLOAD PUSH3 0x46 SWAP1 PUSH3 0x4C5 JUMP JUMPDEST DUP1 PUSH1 0x1F ADD PUSH1 0x20 DUP1 SWAP2 DIV MUL PUSH1 0x20 ADD PUSH1 0x40 MLOAD SWAP1 DUP2 ADD PUSH1 0x40 MSTORE DUP1 SWAP3 SWAP2 SWAP1 DUP2 DUP2 MSTORE PUSH1 0x20 ADD DUP3 DUP1 SLOAD PUSH3 0x74 SWAP1 PUSH3 0x4C5 JUMP JUMPDEST DUP1 ISZERO PUSH3 0xC5 JUMPI DUP1 PUSH1 0x1F LT PUSH3 0x99 JUMPI PUSH2 0x100 DUP1 DUP4 SLOAD DIV MUL DUP4 MSTORE SWAP2 PUSH1 0x20 ADD SWAP2 PUSH3 0xC5 JUMP JUMPDEST DUP3 ADD SWAP2 SWAP1 PUSH1 0x0 MSTORE PUSH1 0x20 PUSH1 0x0 KECCAK256 SWAP1 JUMPDEST DUP2 SLOAD DUP2 MSTORE SWAP1 PUSH1 0x1 ADD SWAP1 PUSH1 0x20 ADD DUP1 DUP4 GT PUSH3 0xA7 JUMPI DUP3 SWAP1 SUB PUSH1 0x1F AND DUP3 ADD SWAP2 JUMPDEST POP POP POP POP POP SWAP3 POP PUSH1 0x1 DUP1 SLOAD PUSH3 0xDB SWAP1 PUSH3 0x4C5 JUMP JUMPDEST DUP1 PUSH1 0x1F ADD PUSH1 0x20 DUP1 SWAP2 DIV MUL PUSH1 0x20 ADD PUSH1 0x40 MLOAD SWAP1 DUP2 ADD PUSH1 0x40 MSTORE DUP1 SWAP3 SWAP2 SWAP1 DUP2 DUP2 MSTORE PUSH1 0x20 ADD DUP3 DUP1 SLOAD PUSH3 0x109 SWAP1 PUSH3 0x4C5 JUMP JUMPDEST DUP1 ISZERO PUSH3 0x15A JUMPI DUP1 PUSH1 0x1F LT PUSH3 0x12E JUMPI PUSH2 0x100 DUP1 DUP4 SLOAD DIV MUL DUP4 MSTORE SWAP2 PUSH1 0x20 ADD SWAP2 PUSH3 0x15A JUMP JUMPDEST DUP3 ADD SWAP2 SWAP1 PUSH1 0x0 MSTORE PUSH1 0x20 PUSH1 0x0 KECCAK256 SWAP1 JUMPDEST DUP2 SLOAD DUP2 MSTORE SWAP1 PUSH1 0x1 ADD SWAP1 PUSH1 0x20 ADD DUP1 DUP4 GT PUSH3 0x13C JUMPI DUP3 SWAP1 SUB PUSH1 0x1F AND DUP3 ADD SWAP2 JUMPDEST POP POP POP POP POP SWAP2 POP PUSH1 0x3 DUP1 SLOAD PUSH3 0x170 SWAP1 PUSH3 0x4C5 JUMP JUMPDEST DUP1 PUSH1 0x1F ADD PUSH1 0x20 DUP1 SWAP2 DIV MUL PUSH1 0x20 ADD PUSH1 0x40 MLOAD SWAP1 DUP2 ADD PUSH1 0x40 MSTORE DUP1 SWAP3 SWAP2 SWAP1 DUP2 DUP2 MSTORE PUSH1 0x20 ADD DUP3 DUP1 SLOAD PUSH3 0x19E SWAP1 PUSH3 0x4C5 JUMP JUMPDEST DUP1 ISZERO PUSH3 0x1EF JUMPI DUP1 PUSH1 0x1F LT PUSH3 0x1C3 JUMPI PUSH2 0x100 DUP1 DUP4 SLOAD DIV MUL DUP4 MSTORE SWAP2 PUSH1 0x20 ADD SWAP2 PUSH3 0x1EF JUMP JUMPDEST DUP3 ADD SWAP2 SWAP1 PUSH1 0x0 MSTORE PUSH1 0x20 PUSH1 0x0 KECCAK256 SWAP1 JUMPDEST DUP2 SLOAD DUP2 MSTORE SWAP1 PUSH1 0x1 ADD SWAP1 PUSH1 0x20 ADD DUP1 DUP4 GT PUSH3 0x1D1 JUMPI DUP3 SWAP1 SUB PUSH1 0x1F AND DUP3 ADD SWAP2 JUMPDEST POP POP POP POP POP SWAP1 POP CALLER PUSH1 0x4 PUSH1 0x0 PUSH2 0x100 EXP DUP2 SLOAD DUP2 PUSH20 0xFFFFFFFFFFFFFFFFFFFFFFFFFFFFFFFFFFFFFFFF MUL NOT AND SWAP1 DUP4 PUSH20 0xFFFFFFFFFFFFFFFFFFFFFFFFFFFFFFFFFFFFFFFF AND MUL OR SWAP1 SSTORE POP POP POP POP PUSH3 0x4FA JUMP JUMPDEST PUSH1 0x0 PUSH1 0x40 MLOAD SWAP1 POP SWAP1 JUMP JUMPDEST PUSH1 0x0 DUP1 REVERT JUMPDEST PUSH1 0x0 DUP1 REVERT JUMPDEST PUSH1 0x0 DUP1 REVERT JUMPDEST PUSH1 0x0 DUP1 REVERT JUMPDEST PUSH1 0x0 PUSH1 0x1F NOT PUSH1 0x1F DUP4 ADD AND SWAP1 POP SWAP2 SWAP1 POP JUMP JUMPDEST PUSH32 0x4E487B7100000000000000000000000000000000000000000000000000000000 PUSH1 0x0 MSTORE PUSH1 0x41 PUSH1 0x4 MSTORE PUSH1 0x24 PUSH1 0x0 REVERT JUMPDEST PUSH3 0x2A9 DUP3 PUSH3 0x25E JUMP JUMPDEST DUP2 ADD DUP2 DUP2 LT PUSH8 0xFFFFFFFFFFFFFFFF DUP3 GT OR ISZERO PUSH3 0x2CB JUMPI PUSH3 0x2CA PUSH3 0x26F JUMP JUMPDEST JUMPDEST DUP1 PUSH1 0x40 MSTORE POP POP POP JUMP JUMPDEST PUSH1 0x0 PUSH3 0x2E0 PUSH3 0x240 JUMP JUMPDEST SWAP1 POP PUSH3 0x2EE DUP3 DUP3 PUSH3 0x29E JUMP JUMPDEST SWAP2 SWAP1 POP JUMP JUMPDEST PUSH1 0x0 PUSH8 0xFFFFFFFFFFFFFFFF DUP3 GT ISZERO PUSH3 0x311 JUMPI PUSH3 0x310 PUSH3 0x26F JUMP JUMPDEST JUMPDEST PUSH3 0x31C DUP3 PUSH3 0x25E JUMP JUMPDEST SWAP1 POP PUSH1 0x20 DUP2 ADD SWAP1 POP SWAP2 SWAP1 POP JUMP JUMPDEST PUSH1 0x0 JUMPDEST DUP4 DUP2 LT ISZERO PUSH3 0x349 JUMPI DUP1 DUP3 ADD MLOAD DUP2 DUP5 ADD MSTORE PUSH1 0x20 DUP2 ADD SWAP1 POP PUSH3 0x32C JUMP JUMPDEST DUP4 DUP2 GT ISZERO PUSH3 0x359 JUMPI PUSH1 0x0 DUP5 DUP5 ADD MSTORE JUMPDEST POP POP POP POP JUMP JUMPDEST PUSH1 0x0 PUSH3 0x376 PUSH3 0x370 DUP5 PUSH3 0x2F3 JUMP JUMPDEST PUSH3 0x2D4 JUMP JUMPDEST SWAP1 POP DUP3 DUP2 MSTORE PUSH1 0x20 DUP2 ADD DUP5 DUP5 DUP5 ADD GT ISZERO PUSH3 0x395 JUMPI PUSH3 0x394 PUSH3 0x259 JUMP JUMPDEST JUMPDEST PUSH3 0x3A2 DUP5 DUP3 DUP6 PUSH3 0x329 JUMP JUMPDEST POP SWAP4 SWAP3 POP POP POP JUMP JUMPDEST PUSH1 0x0 DUP3 PUSH1 0x1F DUP4 ADD SLT PUSH3 0x3C2 JUMPI PUSH3 0x3C1 PUSH3 0x254 JUMP JUMPDEST JUMPDEST DUP2 MLOAD PUSH3 0x3D4 DUP5 DUP3 PUSH1 0x20 DUP7 ADD PUSH3 0x35F JUMP JUMPDEST SWAP2 POP POP SWAP3 SWAP2 POP POP JUMP JUMPDEST PUSH1 0x0 DUP1 PUSH1 0x0 PUSH1 0x60 DUP5 DUP7 SUB SLT ISZERO PUSH3 0x3F9 JUMPI PUSH3 0x3F8 PUSH3 0x24A JUMP JUMPDEST JUMPDEST PUSH1 0x0 DUP5 ADD MLOAD PUSH8 0xFFFFFFFFFFFFFFFF DUP2 GT ISZERO PUSH3 0x41A JUMPI PUSH3 0x419 PUSH3 0x24F JUMP JUMPDEST JUMPDEST PUSH3 0x428 DUP7 DUP3 DUP8 ADD PUSH3 0x3AA JUMP JUMPDEST SWAP4 POP POP PUSH1 0x20 DUP5 ADD MLOAD PUSH8 0xFFFFFFFFFFFFFFFF DUP2 GT ISZERO PUSH3 0x44C JUMPI PUSH3 0x44B PUSH3 0x24F JUMP JUMPDEST JUMPDEST PUSH3 0x45A DUP7 DUP3 DUP8 ADD PUSH3 0x3AA JUMP JUMPDEST SWAP3 POP POP PUSH1 0x40 DUP5 ADD MLOAD PUSH8 0xFFFFFFFFFFFFFFFF DUP2 GT ISZERO PUSH3 0x47E JUMPI PUSH3 0x47D PUSH3 0x24F JUMP JUMPDEST JUMPDEST PUSH3 0x48C DUP7 DUP3 DUP8 ADD PUSH3 0x3AA JUMP JUMPDEST SWAP2 POP POP SWAP3 POP SWAP3 POP SWAP3 JUMP JUMPDEST PUSH32 0x4E487B7100000000000000000000000000000000000000000000000000000000 PUSH1 0x0 MSTORE PUSH1 0x22 PUSH1 0x4 MSTORE PUSH1 0x24 PUSH1 0x0 REVERT JUMPDEST PUSH1 0x0 PUSH1 0x2 DUP3 DIV SWAP1 POP PUSH1 0x1 DUP3 AND DUP1 PUSH3 0x4DE JUMPI PUSH1 0x7F DUP3 AND SWAP2 POP JUMPDEST PUSH1 0x20 DUP3 LT DUP2 SUB PUSH3 0x4F4 JUMPI PUSH3 0x4F3 PUSH3 0x496 JUMP JUMPDEST JUMPDEST POP SWAP2 SWAP1 POP JUMP JUMPDEST PUSH2 0xEA3 DUP1 PUSH3 0x50A PUSH1 0x0 CODECOPY PUSH1 0x0 RETURN INVALID PUSH1 0x80 PUSH1 0x40 MSTORE CALLVALUE DUP1 ISZERO PUSH2 0x10 JUMPI PUSH1 0x0 DUP1 REVERT JUMPDEST POP PUSH1 0x4 CALLDATASIZE LT PUSH2 0x7D JUMPI PUSH1 0x0 CALLDATALOAD PUSH1 0xE0 SHR DUP1 PUSH4 0x7B2E0829 GT PUSH2 0x5B JUMPI DUP1 PUSH4 0x7B2E0829 EQ PUSH2 0xEC JUMPI DUP1 PUSH4 0x811D86C8 EQ PUSH2 0x10A JUMPI DUP1 PUSH4 0x972A8576 EQ PUSH2 0x13A JUMPI DUP1 PUSH4 0xDEAFCC41 EQ PUSH2 0x158 JUMPI PUSH2 0x7D JUMP JUMPDEST DUP1 PUSH4 0x3B0779C EQ PUSH2 0x82 JUMPI DUP1 PUSH4 0x2BD228F9 EQ PUSH2 0xB2 JUMPI DUP1 PUSH4 0x7346A9FA EQ PUSH2 0xCE JUMPI JUMPDEST PUSH1 0x0 DUP1 REVERT JUMPDEST PUSH2 0x9C PUSH1 0x4 DUP1 CALLDATASIZE SUB DUP2 ADD SWAP1 PUSH2 0x97 SWAP2 SWAP1 PUSH2 0x63C JUMP JUMPDEST PUSH2 0x176 JUMP JUMPDEST PUSH1 0x40 MLOAD PUSH2 0xA9 SWAP2 SWAP1 PUSH2 0x6A1 JUMP JUMPDEST PUSH1 0x40 MLOAD DUP1 SWAP2 SUB SWAP1 RETURN JUMPDEST PUSH2 0xCC PUSH1 0x4 DUP1 CALLDATASIZE SUB DUP2 ADD SWAP1 PUSH2 0xC7 SWAP2 SWAP1 PUSH2 0x6E8 JUMP JUMPDEST PUSH2 0x1AB JUMP JUMPDEST STOP JUMPDEST PUSH2 0xD6 PUSH2 0x2AB JUMP JUMPDEST PUSH1 0x40 MLOAD PUSH2 0xE3 SWAP2 SWAP1 PUSH2 0x7CC JUMP JUMPDEST PUSH1 0x40 MLOAD DUP1 SWAP2 SUB SWAP1 RETURN JUMPDEST PUSH2 0xF4 PUSH2 0x2D6 JUMP JUMPDEST PUSH1 0x40 MLOAD PUSH2 0x101 SWAP2 SWAP1 PUSH2 0x807 JUMP JUMPDEST PUSH1 0x40 MLOAD DUP1 SWAP2 SUB SWAP1 RETURN JUMPDEST PUSH2 0x124 PUSH1 0x4 DUP1 CALLDATASIZE SUB DUP2 ADD SWAP1 PUSH2 0x11F SWAP2 SWAP1 PUSH2 0x63C JUMP JUMPDEST PUSH2 0x373 JUMP JUMPDEST PUSH1 0x40 MLOAD PUSH2 0x131 SWAP2 SWAP1 PUSH2 0x83D JUMP JUMPDEST PUSH1 0x40 MLOAD DUP1 SWAP2 SUB SWAP1 RETURN JUMPDEST PUSH2 0x142 PUSH2 0x3BE JUMP JUMPDEST PUSH1 0x40 MLOAD PUSH2 0x14F SWAP2 SWAP1 PUSH2 0x7CC JUMP JUMPDEST PUSH1 0x40 MLOAD DUP1 SWAP2 SUB SWAP1 RETURN JUMPDEST PUSH2 0x160 PUSH2 0x450 JUMP JUMPDEST PUSH1 0x40 MLOAD PUSH2 0x16D SWAP2 SWAP1 PUSH2 0x7CC JUMP JUMPDEST PUSH1 0x40 MLOAD DUP1 SWAP2 SUB SWAP1 RETURN JUMPDEST PUSH1 0x0 PUSH1 0x5 DUP3 PUSH1 0x40 MLOAD PUSH2 0x188 SWAP2 SWAP1 PUSH2 0x894 JUMP JUMPDEST SWAP1 DUP2 MSTORE PUSH1 0x20 ADD PUSH1 0x40 MLOAD DUP1 SWAP2 SUB SWAP1 KECCAK256 PUSH1 0x0 SWAP1 SLOAD SWAP1 PUSH2 0x100 EXP SWAP1 DIV PUSH1 0xFF AND SWAP1 POP SWAP2 SWAP1 POP JUMP JUMPDEST PUSH1 0x4 PUSH1 0x0 SWAP1 SLOAD SWAP1 PUSH2 0x100 EXP SWAP1 DIV PUSH20 0xFFFFFFFFFFFFFFFFFFFFFFFFFFFFFFFFFFFFFFFF AND PUSH20 0xFFFFFFFFFFFFFFFFFFFFFFFFFFFFFFFFFFFFFFFF AND CALLER PUSH20 0xFFFFFFFFFFFFFFFFFFFFFFFFFFFFFFFFFFFFFFFF AND EQ PUSH2 0x23B JUMPI PUSH1 0x40 MLOAD PUSH32 0x8C379A000000000000000000000000000000000000000000000000000000000 DUP2 MSTORE PUSH1 0x4 ADD PUSH2 0x232 SWAP1 PUSH2 0x91D JUMP JUMPDEST PUSH1 0x40 MLOAD DUP1 SWAP2 SUB SWAP1 REVERT JUMPDEST DUP2 PUSH1 0x5 DUP3 PUSH1 0x40 MLOAD PUSH2 0x24C SWAP2 SWAP1 PUSH2 0x894 JUMP JUMPDEST SWAP1 DUP2 MSTORE PUSH1 0x20 ADD PUSH1 0x40 MLOAD DUP1 SWAP2 SUB SWAP1 KECCAK256 PUSH1 0x0 PUSH2 0x100 EXP DUP2 SLOAD DUP2 PUSH1 0xFF MUL NOT AND SWAP1 DUP4 PUSH1 0xFF AND MUL OR SWAP1 SSTORE POP PUSH1 0x6 DUP2 SWAP1 DUP1 PUSH1 0x1 DUP2 SLOAD ADD DUP1 DUP3 SSTORE DUP1 SWAP2 POP POP PUSH1 0x1 SWAP1 SUB SWAP1 PUSH1 0x0 MSTORE PUSH1 0x20 PUSH1 0x0 KECCAK256 ADD PUSH1 0x0 SWAP1 SWAP2 SWAP1 SWAP2 SWAP1 SWAP2 POP SWAP1 DUP2 PUSH2 0x2A6 SWAP2 SWAP1 PUSH2 0xB49 JUMP JUMPDEST POP POP POP JUMP JUMPDEST PUSH1 0x60 PUSH1 0x0 PUSH1 0x1 PUSH1 0x40 MLOAD PUSH1 0x20 ADD PUSH2 0x2C2 SWAP3 SWAP2 SWAP1 PUSH2 0xCEA JUMP JUMPDEST PUSH1 0x40 MLOAD PUSH1 0x20 DUP2 DUP4 SUB SUB DUP2 MSTORE SWAP1 PUSH1 0x40 MSTORE SWAP1 POP SWAP1 JUMP JUMPDEST PUSH1 0x0 DUP1 PUSH1 0x6 DUP1 SLOAD SWAP1 POP SWAP1 POP PUSH1 0x0 DUP1 JUMPDEST DUP3 DUP2 PUSH1 0xFF AND LT ISZERO PUSH2 0x35F JUMPI PUSH1 0x5 PUSH1 0x6 DUP3 PUSH1 0xFF AND DUP2 SLOAD DUP2 LT PUSH2 0x309 JUMPI PUSH2 0x308 PUSH2 0xD19 JUMP JUMPDEST JUMPDEST SWAP1 PUSH1 0x0 MSTORE PUSH1 0x20 PUSH1 0x0 KECCAK256 ADD PUSH1 0x40 MLOAD PUSH2 0x320 SWAP2 SWAP1 PUSH2 0xD48 JUMP JUMPDEST SWAP1 DUP2 MSTORE PUSH1 0x20 ADD PUSH1 0x40 MLOAD DUP1 SWAP2 SUB SWAP1 KECCAK256 PUSH1 0x0 SWAP1 SLOAD SWAP1 PUSH2 0x100 EXP SWAP1 DIV PUSH1 0xFF AND PUSH1 0xFF AND DUP3 PUSH2 0x34A SWAP2 SWAP1 PUSH2 0xD8E JUMP JUMPDEST SWAP2 POP DUP1 DUP1 PUSH2 0x357 SWAP1 PUSH2 0xDE4 JUMP JUMPDEST SWAP2 POP POP PUSH2 0x2E5 JUMP JUMPDEST POP DUP2 DUP2 PUSH2 0x36C SWAP2 SWAP1 PUSH2 0xE3C JUMP JUMPDEST SWAP3 POP POP POP SWAP1 JUMP JUMPDEST PUSH1 0x0 PUSH1 0x3C PUSH1 0x5 DUP4 PUSH1 0x40 MLOAD PUSH2 0x387 SWAP2 SWAP1 PUSH2 0x894 JUMP JUMPDEST SWAP1 DUP2 MSTORE PUSH1 0x20 ADD PUSH1 0x40 MLOAD DUP1 SWAP2 SUB SWAP1 KECCAK256 PUSH1 0x0 SWAP1 SLOAD SWAP1 PUSH2 0x100 EXP SWAP1 DIV PUSH1 0xFF AND PUSH1 0xFF AND LT PUSH2 0x3B4 JUMPI PUSH1 0x1 SWAP1 POP PUSH2 0x3B9 JUMP JUMPDEST PUSH1 0x0 SWAP1 POP JUMPDEST SWAP2 SWAP1 POP JUMP JUMPDEST PUSH1 0x60 PUSH1 0x1 DUP1 SLOAD PUSH2 0x3CD SWAP1 PUSH2 0x96C JUMP JUMPDEST DUP1 PUSH1 0x1F ADD PUSH1 0x20 DUP1 SWAP2 DIV MUL PUSH1 0x20 ADD PUSH1 0x40 MLOAD SWAP1 DUP2 ADD PUSH1 0x40 MSTORE DUP1 SWAP3 SWAP2 SWAP1 DUP2 DUP2 MSTORE PUSH1 0x20 ADD DUP3 DUP1 SLOAD PUSH2 0x3F9 SWAP1 PUSH2 0x96C JUMP JUMPDEST DUP1 ISZERO PUSH2 0x446 JUMPI DUP1 PUSH1 0x1F LT PUSH2 0x41B JUMPI PUSH2 0x100 DUP1 DUP4 SLOAD DIV MUL DUP4 MSTORE SWAP2 PUSH1 0x20 ADD SWAP2 PUSH2 0x446 JUMP JUMPDEST DUP3 ADD SWAP2 SWAP1 PUSH1 0x0 MSTORE PUSH1 0x20 PUSH1 0x0 KECCAK256 SWAP1 JUMPDEST DUP2 SLOAD DUP2 MSTORE SWAP1 PUSH1 0x1 ADD SWAP1 PUSH1 0x20 ADD DUP1 DUP4 GT PUSH2 0x429 JUMPI DUP3 SWAP1 SUB PUSH1 0x1F AND DUP3 ADD SWAP2 JUMPDEST POP POP POP POP POP SWAP1 POP SWAP1 JUMP JUMPDEST PUSH1 0x60 PUSH1 0x3 DUP1 SLOAD PUSH2 0x45F SWAP1 PUSH2 0x96C JUMP JUMPDEST DUP1 PUSH1 0x1F ADD PUSH1 0x20 DUP1 SWAP2 DIV MUL PUSH1 0x20 ADD PUSH1 0x40 MLOAD SWAP1 DUP2 ADD PUSH1 0x40 MSTORE DUP1 SWAP3 SWAP2 SWAP1 DUP2 DUP2 MSTORE PUSH1 0x20 ADD DUP3 DUP1 SLOAD PUSH2 0x48B SWAP1 PUSH2 0x96C JUMP JUMPDEST DUP1 ISZERO PUSH2 0x4D8 JUMPI DUP1 PUSH1 0x1F LT PUSH2 0x4AD JUMPI PUSH2 0x100 DUP1 DUP4 SLOAD DIV MUL DUP4 MSTORE SWAP2 PUSH1 0x20 ADD SWAP2 PUSH2 0x4D8 JUMP JUMPDEST DUP3 ADD SWAP2 SWAP1 PUSH1 0x0 MSTORE PUSH1 0x20 PUSH1 0x0 KECCAK256 SWAP1 JUMPDEST DUP2 SLOAD DUP2 MSTORE SWAP1 PUSH1 0x1 ADD SWAP1 PUSH1 0x20 ADD DUP1 DUP4 GT PUSH2 0x4BB JUMPI DUP3 SWAP1 SUB PUSH1 0x1F AND DUP3 ADD SWAP2 JUMPDEST POP POP POP POP POP SWAP1 POP SWAP1 JUMP JUMPDEST PUSH1 0x0 PUSH1 0x40 MLOAD SWAP1 POP SWAP1 JUMP JUMPDEST PUSH1 0x0 DUP1 REVERT JUMPDEST PUSH1 0x0 DUP1 REVERT JUMPDEST PUSH1 0x0 DUP1 REVERT JUMPDEST PUSH1 0x0 DUP1 REVERT JUMPDEST PUSH1 0x0 PUSH1 0x1F NOT PUSH1 0x1F DUP4 ADD AND SWAP1 POP SWAP2 SWAP1 POP JUMP JUMPDEST PUSH32 0x4E487B7100000000000000000000000000000000000000000000000000000000 PUSH1 0x0 MSTORE PUSH1 0x41 PUSH1 0x4 MSTORE PUSH1 0x24 PUSH1 0x0 REVERT JUMPDEST PUSH2 0x549 DUP3 PUSH2 0x500 JUMP JUMPDEST DUP2 ADD DUP2 DUP2 LT PUSH8 0xFFFFFFFFFFFFFFFF DUP3 GT OR ISZERO PUSH2 0x568 JUMPI PUSH2 0x567 PUSH2 0x511 JUMP JUMPDEST JUMPDEST DUP1 PUSH1 0x40 MSTORE POP POP POP JUMP JUMPDEST PUSH1 0x0 PUSH2 0x57B PUSH2 0x4E2 JUMP JUMPDEST SWAP1 POP PUSH2 0x587 DUP3 DUP3 PUSH2 0x540 JUMP JUMPDEST SWAP2 SWAP1 POP JUMP JUMPDEST PUSH1 0x0 PUSH8 0xFFFFFFFFFFFFFFFF DUP3 GT ISZERO PUSH2 0x5A7 JUMPI PUSH2 0x5A6 PUSH2 0x511 JUMP JUMPDEST JUMPDEST PUSH2 0x5B0 DUP3 PUSH2 0x500 JUMP JUMPDEST SWAP1 POP PUSH1 0x20 DUP2 ADD SWAP1 POP SWAP2 SWAP1 POP JUMP JUMPDEST DUP3 DUP2 DUP4 CALLDATACOPY PUSH1 0x0 DUP4 DUP4 ADD MSTORE POP POP POP JUMP JUMPDEST PUSH1 0x0 PUSH2 0x5DF PUSH2 0x5DA DUP5 PUSH2 0x58C JUMP JUMPDEST PUSH2 0x571 JUMP JUMPDEST SWAP1 POP DUP3 DUP2 MSTORE PUSH1 0x20 DUP2 ADD DUP5 DUP5 DUP5 ADD GT ISZERO PUSH2 0x5FB JUMPI PUSH2 0x5FA PUSH2 0x4FB JUMP JUMPDEST JUMPDEST PUSH2 0x606 DUP5 DUP3 DUP6 PUSH2 0x5BD JUMP JUMPDEST POP SWAP4 SWAP3 POP POP POP JUMP JUMPDEST PUSH1 0x0 DUP3 PUSH1 0x1F DUP4 ADD SLT PUSH2 0x623 JUMPI PUSH2 0x622 PUSH2 0x4F6 JUMP JUMPDEST JUMPDEST DUP2 CALLDATALOAD PUSH2 0x633 DUP5 DUP3 PUSH1 0x20 DUP7 ADD PUSH2 0x5CC JUMP JUMPDEST SWAP2 POP POP SWAP3 SWAP2 POP POP JUMP JUMPDEST PUSH1 0x0 PUSH1 0x20 DUP3 DUP5 SUB SLT ISZERO PUSH2 0x652 JUMPI PUSH2 0x651 PUSH2 0x4EC JUMP JUMPDEST JUMPDEST PUSH1 0x0 DUP3 ADD CALLDATALOAD PUSH8 0xFFFFFFFFFFFFFFFF DUP2 GT ISZERO PUSH2 0x670 JUMPI PUSH2 0x66F PUSH2 0x4F1 JUMP JUMPDEST JUMPDEST PUSH2 0x67C DUP5 DUP3 DUP6 ADD PUSH2 0x60E JUMP JUMPDEST SWAP2 POP POP SWAP3 SWAP2 POP POP JUMP JUMPDEST PUSH1 0x0 PUSH1 0xFF DUP3 AND SWAP1 POP SWAP2 SWAP1 POP JUMP JUMPDEST PUSH2 0x69B DUP2 PUSH2 0x685 JUMP JUMPDEST DUP3 MSTORE POP POP JUMP JUMPDEST PUSH1 0x0 PUSH1 0x20 DUP3 ADD SWAP1 POP PUSH2 0x6B6 PUSH1 0x0 DUP4 ADD DUP5 PUSH2 0x692 JUMP JUMPDEST SWAP3 SWAP2 POP POP JUMP JUMPDEST PUSH2 0x6C5 DUP2 PUSH2 0x685 JUMP JUMPDEST DUP2 EQ PUSH2 0x6D0 JUMPI PUSH1 0x0 DUP1 REVERT JUMPDEST POP JUMP JUMPDEST PUSH1 0x0 DUP2 CALLDATALOAD SWAP1 POP PUSH2 0x6E2 DUP2 PUSH2 0x6BC JUMP JUMPDEST SWAP3 SWAP2 POP POP JUMP JUMPDEST PUSH1 0x0 DUP1 PUSH1 0x40 DUP4 DUP6 SUB SLT ISZERO PUSH2 0x6FF JUMPI PUSH2 0x6FE PUSH2 0x4EC JUMP JUMPDEST JUMPDEST PUSH1 0x0 PUSH2 0x70D DUP6 DUP3 DUP7 ADD PUSH2 0x6D3 JUMP JUMPDEST SWAP3 POP POP PUSH1 0x20 DUP4 ADD CALLDATALOAD PUSH8 0xFFFFFFFFFFFFFFFF DUP2 GT ISZERO PUSH2 0x72E JUMPI PUSH2 0x72D PUSH2 0x4F1 JUMP JUMPDEST JUMPDEST PUSH2 0x73A DUP6 DUP3 DUP7 ADD PUSH2 0x60E JUMP JUMPDEST SWAP2 POP POP SWAP3 POP SWAP3 SWAP1 POP JUMP JUMPDEST PUSH1 0x0 DUP2 MLOAD SWAP1 POP SWAP2 SWAP1 POP JUMP JUMPDEST PUSH1 0x0 DUP3 DUP3 MSTORE PUSH1 0x20 DUP3 ADD SWAP1 POP SWAP3 SWAP2 POP POP JUMP JUMPDEST PUSH1 0x0 JUMPDEST DUP4 DUP2 LT ISZERO PUSH2 0x77E JUMPI DUP1 DUP3 ADD MLOAD DUP2 DUP5 ADD MSTORE PUSH1 0x20 DUP2 ADD SWAP1 POP PUSH2 0x763 JUMP JUMPDEST DUP4 DUP2 GT ISZERO PUSH2 0x78D JUMPI PUSH1 0x0 DUP5 DUP5 ADD MSTORE JUMPDEST POP POP POP POP JUMP JUMPDEST PUSH1 0x0 PUSH2 0x79E DUP3 PUSH2 0x744 JUMP JUMPDEST PUSH2 0x7A8 DUP2 DUP6 PUSH2 0x74F JUMP JUMPDEST SWAP4 POP PUSH2 0x7B8 DUP2 DUP6 PUSH1 0x20 DUP7 ADD PUSH2 0x760 JUMP JUMPDEST PUSH2 0x7C1 DUP2 PUSH2 0x500 JUMP JUMPDEST DUP5 ADD SWAP2 POP POP SWAP3 SWAP2 POP POP JUMP JUMPDEST PUSH1 0x0 PUSH1 0x20 DUP3 ADD SWAP1 POP DUP2 DUP2 SUB PUSH1 0x0 DUP4 ADD MSTORE PUSH2 0x7E6 DUP2 DUP5 PUSH2 0x793 JUMP JUMPDEST SWAP1 POP SWAP3 SWAP2 POP POP JUMP JUMPDEST PUSH1 0x0 DUP2 SWAP1 POP SWAP2 SWAP1 POP JUMP JUMPDEST PUSH2 0x801 DUP2 PUSH2 0x7EE JUMP JUMPDEST DUP3 MSTORE POP POP JUMP JUMPDEST PUSH1 0x0 PUSH1 0x20 DUP3 ADD SWAP1 POP PUSH2 0x81C PUSH1 0x0 DUP4 ADD DUP5 PUSH2 0x7F8 JUMP JUMPDEST SWAP3 SWAP2 POP POP JUMP JUMPDEST PUSH1 0x0 DUP2 ISZERO ISZERO SWAP1 POP SWAP2 SWAP1 POP JUMP JUMPDEST PUSH2 0x837 DUP2 PUSH2 0x822 JUMP JUMPDEST DUP3 MSTORE POP POP JUMP JUMPDEST PUSH1 0x0 PUSH1 0x20 DUP3 ADD SWAP1 POP PUSH2 0x852 PUSH1 0x0 DUP4 ADD DUP5 PUSH2 0x82E JUMP JUMPDEST SWAP3 SWAP2 POP POP JUMP JUMPDEST PUSH1 0x0 DUP2 SWAP1 POP SWAP3 SWAP2 POP POP JUMP JUMPDEST PUSH1 0x0 PUSH2 0x86E DUP3 PUSH2 0x744 JUMP JUMPDEST PUSH2 0x878 DUP2 DUP6 PUSH2 0x858 JUMP JUMPDEST SWAP4 POP PUSH2 0x888 DUP2 DUP6 PUSH1 0x20 DUP7 ADD PUSH2 0x760 JUMP JUMPDEST DUP1 DUP5 ADD SWAP2 POP POP SWAP3 SWAP2 POP POP JUMP JUMPDEST PUSH1 0x0 PUSH2 0x8A0 DUP3 DUP5 PUSH2 0x863 JUMP JUMPDEST SWAP2 POP DUP2 SWAP1 POP SWAP3 SWAP2 POP POP JUMP JUMPDEST PUSH32 0x536F6C61206C6120646F63656E746520707565646520706F6E6572206E6F7461 PUSH1 0x0 DUP3 ADD MSTORE PUSH32 0x7300000000000000000000000000000000000000000000000000000000000000 PUSH1 0x20 DUP3 ADD MSTORE POP JUMP JUMPDEST PUSH1 0x0 PUSH2 0x907 PUSH1 0x21 DUP4 PUSH2 0x74F JUMP JUMPDEST SWAP2 POP PUSH2 0x912 DUP3 PUSH2 0x8AB JUMP JUMPDEST PUSH1 0x40 DUP3 ADD SWAP1 POP SWAP2 SWAP1 POP JUMP JUMPDEST PUSH1 0x0 PUSH1 0x20 DUP3 ADD SWAP1 POP DUP2 DUP2 SUB PUSH1 0x0 DUP4 ADD MSTORE PUSH2 0x936 DUP2 PUSH2 0x8FA JUMP JUMPDEST SWAP1 POP SWAP2 SWAP1 POP JUMP JUMPDEST PUSH32 0x4E487B7100000000000000000000000000000000000000000000000000000000 PUSH1 0x0 MSTORE PUSH1 0x22 PUSH1 0x4 MSTORE PUSH1 0x24 PUSH1 0x0 REVERT JUMPDEST PUSH1 0x0 PUSH1 0x2 DUP3 DIV SWAP1 POP PUSH1 0x1 DUP3 AND DUP1 PUSH2 0x984 JUMPI PUSH1 0x7F DUP3 AND SWAP2 POP JUMPDEST PUSH1 0x20 DUP3 LT DUP2 SUB PUSH2 0x997 JUMPI PUSH2 0x996 PUSH2 0x93D JUMP JUMPDEST JUMPDEST POP SWAP2 SWAP1 POP JUMP JUMPDEST PUSH1 0x0 DUP2 SWAP1 POP DUP2 PUSH1 0x0 MSTORE PUSH1 0x20 PUSH1 0x0 KECCAK256 SWAP1 POP SWAP2 SWAP1 POP JUMP JUMPDEST PUSH1 0x0 PUSH1 0x20 PUSH1 0x1F DUP4 ADD DIV SWAP1 POP SWAP2 SWAP1 POP JUMP JUMPDEST PUSH1 0x0 DUP3 DUP3 SHL SWAP1 POP SWAP3 SWAP2 POP POP JUMP JUMPDEST PUSH1 0x0 PUSH1 0x8 DUP4 MUL PUSH2 0x9FF PUSH32 0xFFFFFFFFFFFFFFFFFFFFFFFFFFFFFFFFFFFFFFFFFFFFFFFFFFFFFFFFFFFFFFFF DUP3 PUSH2 0x9C2 JUMP JUMPDEST PUSH2 0xA09 DUP7 DUP4 PUSH2 0x9C2 JUMP JUMPDEST SWAP6 POP DUP1 NOT DUP5 AND SWAP4 POP DUP1 DUP7 AND DUP5 OR SWAP3 POP POP POP SWAP4 SWAP3 POP POP POP JUMP JUMPDEST PUSH1 0x0 DUP2 SWAP1 POP SWAP2 SWAP1 POP JUMP JUMPDEST PUSH1 0x0 PUSH2 0xA46 PUSH2 0xA41 PUSH2 0xA3C DUP5 PUSH2 0x7EE JUMP JUMPDEST PUSH2 0xA21 JUMP JUMPDEST PUSH2 0x7EE JUMP JUMPDEST SWAP1 POP SWAP2 SWAP1 POP JUMP JUMPDEST PUSH1 0x0 DUP2 SWAP1 POP SWAP2 SWAP1 POP JUMP JUMPDEST PUSH2 0xA60 DUP4 PUSH2 0xA2B JUMP JUMPDEST PUSH2 0xA74 PUSH2 0xA6C DUP3 PUSH2 0xA4D JUMP JUMPDEST DUP5 DUP5 SLOAD PUSH2 0x9CF JUMP JUMPDEST DUP3 SSTORE POP POP POP POP JUMP JUMPDEST PUSH1 0x0 SWAP1 JUMP JUMPDEST PUSH2 0xA89 PUSH2 0xA7C JUMP JUMPDEST PUSH2 0xA94 DUP2 DUP5 DUP5 PUSH2 0xA57 JUMP JUMPDEST POP POP POP JUMP JUMPDEST JUMPDEST DUP2 DUP2 LT ISZERO PUSH2 0xAB8 JUMPI PUSH2 0xAAD PUSH1 0x0 DUP3 PUSH2 0xA81 JUMP JUMPDEST PUSH1 0x1 DUP2 ADD SWAP1 POP PUSH2 0xA9A JUMP JUMPDEST POP POP JUMP JUMPDEST PUSH1 0x1F DUP3 GT ISZERO PUSH2 0xAFD JUMPI PUSH2 0xACE DUP2 PUSH2 0x99D JUMP JUMPDEST PUSH2 0xAD7 DUP5 PUSH2 0x9B2 JUMP JUMPDEST DUP2 ADD PUSH1 0x20 DUP6 LT ISZERO PUSH2 0xAE6 JUMPI DUP2 SWAP1 POP JUMPDEST PUSH2 0xAFA PUSH2 0xAF2 DUP6 PUSH2 0x9B2 JUMP JUMPDEST DUP4 ADD DUP3 PUSH2 0xA99 JUMP JUMPDEST POP POP JUMPDEST POP POP POP JUMP JUMPDEST PUSH1 0x0 DUP3 DUP3 SHR SWAP1 POP SWAP3 SWAP2 POP POP JUMP JUMPDEST PUSH1 0x0 PUSH2 0xB20 PUSH1 0x0 NOT DUP5 PUSH1 0x8 MUL PUSH2 0xB02 JUMP JUMPDEST NOT DUP1 DUP4 AND SWAP2 POP POP SWAP3 SWAP2 POP POP JUMP JUMPDEST PUSH1 0x0 PUSH2 0xB39 DUP4 DUP4 PUSH2 0xB0F JUMP JUMPDEST SWAP2 POP DUP3 PUSH1 0x2 MUL DUP3 OR SWAP1 POP SWAP3 SWAP2 POP POP JUMP JUMPDEST PUSH2 0xB52 DUP3 PUSH2 0x744 JUMP JUMPDEST PUSH8 0xFFFFFFFFFFFFFFFF DUP2 GT ISZERO PUSH2 0xB6B JUMPI PUSH2 0xB6A PUSH2 0x511 JUMP JUMPDEST JUMPDEST PUSH2 0xB75 DUP3 SLOAD PUSH2 0x96C JUMP JUMPDEST PUSH2 0xB80 DUP3 DUP3 DUP6 PUSH2 0xABC JUMP JUMPDEST PUSH1 0x0 PUSH1 0x20 SWAP1 POP PUSH1 0x1F DUP4 GT PUSH1 0x1 DUP2 EQ PUSH2 0xBB3 JUMPI PUSH1 0x0 DUP5 ISZERO PUSH2 0xBA1 JUMPI DUP3 DUP8 ADD MLOAD SWAP1 POP JUMPDEST PUSH2 0xBAB DUP6 DUP3 PUSH2 0xB2D JUMP JUMPDEST DUP7 SSTORE POP PUSH2 0xC13 JUMP JUMPDEST PUSH1 0x1F NOT DUP5 AND PUSH2 0xBC1 DUP7 PUSH2 0x99D JUMP JUMPDEST PUSH1 0x0 JUMPDEST DUP3 DUP2 LT ISZERO PUSH2 0xBE9 JUMPI DUP5 DUP10 ADD MLOAD DUP3 SSTORE PUSH1 0x1 DUP3 ADD SWAP2 POP PUSH1 0x20 DUP6 ADD SWAP5 POP PUSH1 0x20 DUP2 ADD SWAP1 POP PUSH2 0xBC4 JUMP JUMPDEST DUP7 DUP4 LT ISZERO PUSH2 0xC06 JUMPI DUP5 DUP10 ADD MLOAD PUSH2 0xC02 PUSH1 0x1F DUP10 AND DUP3 PUSH2 0xB0F JUMP JUMPDEST DUP4 SSTORE POP JUMPDEST PUSH1 0x1 PUSH1 0x2 DUP9 MUL ADD DUP9 SSTORE POP POP POP JUMPDEST POP POP POP POP POP POP JUMP JUMPDEST PUSH1 0x0 DUP2 SLOAD PUSH2 0xC28 DUP2 PUSH2 0x96C JUMP JUMPDEST PUSH2 0xC32 DUP2 DUP7 PUSH2 0x858 JUMP JUMPDEST SWAP5 POP PUSH1 0x1 DUP3 AND PUSH1 0x0 DUP2 EQ PUSH2 0xC4D JUMPI PUSH1 0x1 DUP2 EQ PUSH2 0xC62 JUMPI PUSH2 0xC95 JUMP JUMPDEST PUSH1 0xFF NOT DUP4 AND DUP7 MSTORE DUP2 ISZERO ISZERO DUP3 MUL DUP7 ADD SWAP4 POP PUSH2 0xC95 JUMP JUMPDEST PUSH2 0xC6B DUP6 PUSH2 0x99D JUMP JUMPDEST PUSH1 0x0 JUMPDEST DUP4 DUP2 LT ISZERO PUSH2 0xC8D JUMPI DUP2 SLOAD DUP2 DUP10 ADD MSTORE PUSH1 0x1 DUP3 ADD SWAP2 POP PUSH1 0x20 DUP2 ADD SWAP1 POP PUSH2 0xC6E JUMP JUMPDEST DUP4 DUP9 ADD SWAP6 POP POP POP JUMPDEST POP POP POP SWAP3 SWAP2 POP POP JUMP JUMPDEST PUSH32 0x2000000000000000000000000000000000000000000000000000000000000000 PUSH1 0x0 DUP3 ADD MSTORE POP JUMP JUMPDEST PUSH1 0x0 PUSH2 0xCD4 PUSH1 0x1 DUP4 PUSH2 0x858 JUMP JUMPDEST SWAP2 POP PUSH2 0xCDF DUP3 PUSH2 0xC9E JUMP JUMPDEST PUSH1 0x1 DUP3 ADD SWAP1 POP SWAP2 SWAP1 POP JUMP JUMPDEST PUSH1 0x0 PUSH2 0xCF6 DUP3 DUP6 PUSH2 0xC1B JUMP JUMPDEST SWAP2 POP PUSH2 0xD01 DUP3 PUSH2 0xCC7 JUMP JUMPDEST SWAP2 POP PUSH2 0xD0D DUP3 DUP5 PUSH2 0xC1B JUMP JUMPDEST SWAP2 POP DUP2 SWAP1 POP SWAP4 SWAP3 POP POP POP JUMP JUMPDEST PUSH32 0x4E487B7100000000000000000000000000000000000000000000000000000000 PUSH1 0x0 MSTORE PUSH1 0x32 PUSH1 0x4 MSTORE PUSH1 0x24 PUSH1 0x0 REVERT JUMPDEST PUSH1 0x0 PUSH2 0xD54 DUP3 DUP5 PUSH2 0xC1B JUMP JUMPDEST SWAP2 POP DUP2 SWAP1 POP SWAP3 SWAP2 POP POP JUMP JUMPDEST PUSH32 0x4E487B7100000000000000000000000000000000000000000000000000000000 PUSH1 0x0 MSTORE PUSH1 0x11 PUSH1 0x4 MSTORE PUSH1 0x24 PUSH1 0x0 REVERT JUMPDEST PUSH1 0x0 PUSH2 0xD99 DUP3 PUSH2 0x7EE JUMP JUMPDEST SWAP2 POP PUSH2 0xDA4 DUP4 PUSH2 0x7EE JUMP JUMPDEST SWAP3 POP DUP3 PUSH32 0xFFFFFFFFFFFFFFFFFFFFFFFFFFFFFFFFFFFFFFFFFFFFFFFFFFFFFFFFFFFFFFFF SUB DUP3 GT ISZERO PUSH2 0xDD9 JUMPI PUSH2 0xDD8 PUSH2 0xD5F JUMP JUMPDEST JUMPDEST DUP3 DUP3 ADD SWAP1 POP SWAP3 SWAP2 POP POP JUMP JUMPDEST PUSH1 0x0 PUSH2 0xDEF DUP3 PUSH2 0x685 JUMP JUMPDEST SWAP2 POP PUSH1 0xFF DUP3 SUB PUSH2 0xE02 JUMPI PUSH2 0xE01 PUSH2 0xD5F JUMP JUMPDEST JUMPDEST PUSH1 0x1 DUP3 ADD SWAP1 POP SWAP2 SWAP1 POP JUMP JUMPDEST PUSH32 0x4E487B7100000000000000000000000000000000000000000000000000000000 PUSH1 0x0 MSTORE PUSH1 0x12 PUSH1 0x4 MSTORE PUSH1 0x24 PUSH1 0x0 REVERT JUMPDEST PUSH1 0x0 PUSH2 0xE47 DUP3 PUSH2 0x7EE JUMP JUMPDEST SWAP2 POP PUSH2 0xE52 DUP4 PUSH2 0x7EE JUMP JUMPDEST SWAP3 POP DUP3 PUSH2 0xE62 JUMPI PUSH2 0xE61 PUSH2 0xE0D JUMP JUMPDEST JUMPDEST DUP3 DUP3 DIV SWAP1 POP SWAP3 SWAP2 POP POP JUMP INVALID LOG2 PUSH5 0x6970667358 0x22 SLT KECCAK256 0xD0 SELFDESTRUCT SWAP12 0x1F 0xD5 0xA9 JUMPDEST 0xC6 0x27 0x49 0xF7 0xB1 0xD2 RETURNDATASIZE 0xE3 0x49 0xE0 PUSH3 0x7FD012 0x4F 0xD7 0x1E SUB MULMOD 0x2F 0x4C 0xB6 0xCE 0x5C CREATE2 PUSH5 0x736F6C6343 STOP ADDMOD 0xF STOP CALLER "
				},
				"gasEstimates": {
					"creation": {
						"codeDepositCost": "749400",
						"executionCost": "infinite",
						"totalCost": "infinite"
					},
					"external": {
						"apellido()": "infinite",
						"aprobo(string)": "infinite",
						"curso()": "infinite",
						"nombre_completo()": "infinite",
						"nota_materia(string)": "infinite",
						"promedio()": "infinite",
						"set_nota_materia(uint8,string)": "infinite"
					}
				},
				"methodIdentifiers": {
					"apellido()": "972a8576",
					"aprobo(string)": "811d86c8",
					"curso()": "deafcc41",
					"nombre_completo()": "7346a9fa",
					"nota_materia(string)": "03b0779c",
					"promedio()": "7b2e0829",
					"set_nota_materia(uint8,string)": "2bd228f9"
				}
			},
			"storageLayout": {
				"storage": [
					{
						"astId": 3,
						"contract": "contracts/estudiantes.sol:estudiante",
						"label": "_nombre",
						"offset": 0,
						"slot": "0",
						"type": "t_string_storage"
					},
					{
						"astId": 5,
						"contract": "contracts/estudiantes.sol:estudiante",
						"label": "_apellido",
						"offset": 0,
						"slot": "1",
						"type": "t_string_storage"
					},
					{
						"astId": 7,
						"contract": "contracts/estudiantes.sol:estudiante",
						"label": "_nombre_completo",
						"offset": 0,
						"slot": "2",
						"type": "t_string_storage"
					},
					{
						"astId": 9,
						"contract": "contracts/estudiantes.sol:estudiante",
						"label": "_curso",
						"offset": 0,
						"slot": "3",
						"type": "t_string_storage"
					},
					{
						"astId": 11,
						"contract": "contracts/estudiantes.sol:estudiante",
						"label": "_docente",
						"offset": 0,
						"slot": "4",
						"type": "t_address"
					},
					{
						"astId": 15,
						"contract": "contracts/estudiantes.sol:estudiante",
						"label": "notas_materias",
						"offset": 0,
						"slot": "5",
						"type": "t_mapping(t_string_memory_ptr,t_uint8)"
					},
					{
						"astId": 18,
						"contract": "contracts/estudiantes.sol:estudiante",
						"label": "recorrerMapping",
						"offset": 0,
						"slot": "6",
						"type": "t_array(t_string_storage)dyn_storage"
					}
				],
				"types": {
					"t_address": {
						"encoding": "inplace",
						"label": "address",
						"numberOfBytes": "20"
					},
					"t_array(t_string_storage)dyn_storage": {
						"base": "t_string_storage",
						"encoding": "dynamic_array",
						"label": "string[]",
						"numberOfBytes": "32"
					},
					"t_mapping(t_string_memory_ptr,t_uint8)": {
						"encoding": "mapping",
						"key": "t_string_memory_ptr",
						"label": "mapping(string => uint8)",
						"numberOfBytes": "32",
						"value": "t_uint8"
					},
					"t_string_memory_ptr": {
						"encoding": "bytes",
						"label": "string",
						"numberOfBytes": "32"
					},
					"t_string_storage": {
						"encoding": "bytes",
						"label": "string",
						"numberOfBytes": "32"
					},
					"t_uint8": {
						"encoding": "inplace",
						"label": "uint8",
						"numberOfBytes": "1"
					}
				}
			},
			"userdoc": {
				"kind": "user",
				"methods": {},
				"version": 1
			}
		}
	}
}